{
  "contractName": "CandidateContract",
  "abi": [
    {
      "inputs": [
        {
          "internalType": "contract RecruitersVerifiersContract",
          "name": "_recruitersVerifiersContract",
          "type": "address"
        }
      ],
      "stateMutability": "nonpayable",
      "type": "constructor"
    },
    {
      "anonymous": false,
      "inputs": [
        {
          "components": [
            {
              "internalType": "uint256",
              "name": "id",
              "type": "uint256"
            },
            {
              "internalType": "string",
              "name": "hash",
              "type": "string"
            },
            {
              "internalType": "string",
              "name": "title",
              "type": "string"
            },
            {
              "internalType": "uint256",
              "name": "experienceType",
              "type": "uint256"
            },
            {
              "internalType": "uint256",
              "name": "candidateId",
              "type": "uint256"
            },
            {
              "internalType": "address",
              "name": "author",
              "type": "address"
            },
            {
              "internalType": "bool",
              "name": "isVerified",
              "type": "bool"
            },
            {
              "internalType": "address",
              "name": "verifiableBy",
              "type": "address"
            },
            {
              "internalType": "uint256",
              "name": "verificationDate",
              "type": "uint256"
            }
          ],
          "indexed": false,
          "internalType": "struct CandidateContract.Experience[]",
          "name": "experiences",
          "type": "tuple[]"
        }
      ],
      "name": "ExperiencesAdded",
      "type": "event"
    },
    {
      "inputs": [
        {
          "internalType": "address",
          "name": "",
          "type": "address"
        },
        {
          "internalType": "address",
          "name": "",
          "type": "address"
        }
      ],
      "name": "candidateRecruiterTmpAuth",
      "outputs": [
        {
          "internalType": "uint256",
          "name": "",
          "type": "uint256"
        }
      ],
      "stateMutability": "view",
      "type": "function",
      "constant": true
    },
    {
      "inputs": [],
      "name": "getOwner",
      "outputs": [
        {
          "internalType": "address",
          "name": "",
          "type": "address"
        }
      ],
      "stateMutability": "view",
      "type": "function",
      "constant": true
    },
    {
      "inputs": [
        {
          "internalType": "string",
          "name": "_dni",
          "type": "string"
        },
        {
          "internalType": "string",
          "name": "_name",
          "type": "string"
        },
        {
          "internalType": "string",
          "name": "_lastName",
          "type": "string"
        },
        {
          "internalType": "string",
          "name": "_secondLastName",
          "type": "string"
        },
        {
          "internalType": "string",
          "name": "_postalAddress",
          "type": "string"
        },
        {
          "internalType": "string",
          "name": "_emailAddress",
          "type": "string"
        }
      ],
      "name": "registerCandidate",
      "outputs": [],
      "stateMutability": "nonpayable",
      "type": "function"
    },
    {
      "inputs": [
        {
          "internalType": "address[]",
          "name": "_recruiterAddresses",
          "type": "address[]"
        }
      ],
      "name": "authorizeRecruiter",
      "outputs": [],
      "stateMutability": "nonpayable",
      "type": "function"
    },
    {
      "inputs": [],
      "name": "getRegisteredCandidates",
      "outputs": [
        {
          "components": [
            {
              "internalType": "uint256",
              "name": "id",
              "type": "uint256"
            },
            {
              "internalType": "string",
              "name": "dni",
              "type": "string"
            },
            {
              "internalType": "string",
              "name": "name",
              "type": "string"
            },
            {
              "internalType": "string",
              "name": "lastName",
              "type": "string"
            },
            {
              "internalType": "string",
              "name": "secondLastName",
              "type": "string"
            },
            {
              "internalType": "string",
              "name": "postalAddress",
              "type": "string"
            },
            {
              "internalType": "string",
              "name": "emailAddress",
              "type": "string"
            },
            {
              "internalType": "address",
              "name": "candidateAddress",
              "type": "address"
            },
            {
              "internalType": "bool",
              "name": "isRegistered",
              "type": "bool"
            },
            {
              "internalType": "bool",
              "name": "isVerified",
              "type": "bool"
            },
            {
              "internalType": "uint256",
              "name": "experienceCount",
              "type": "uint256"
            }
          ],
          "internalType": "struct CandidateContract.Candidate[]",
          "name": "",
          "type": "tuple[]"
        }
      ],
      "stateMutability": "view",
      "type": "function",
      "constant": true
    },
    {
      "inputs": [
        {
          "internalType": "address",
          "name": "_candidateAddress",
          "type": "address"
        },
        {
          "internalType": "uint256",
          "name": "_currentTime",
          "type": "uint256"
        }
      ],
      "name": "getCandidateRecruiter",
      "outputs": [
        {
          "components": [
            {
              "internalType": "uint256",
              "name": "id",
              "type": "uint256"
            },
            {
              "internalType": "string",
              "name": "dni",
              "type": "string"
            },
            {
              "internalType": "string",
              "name": "name",
              "type": "string"
            },
            {
              "internalType": "string",
              "name": "lastName",
              "type": "string"
            },
            {
              "internalType": "string",
              "name": "secondLastName",
              "type": "string"
            },
            {
              "internalType": "string",
              "name": "postalAddress",
              "type": "string"
            },
            {
              "internalType": "string",
              "name": "emailAddress",
              "type": "string"
            },
            {
              "internalType": "address",
              "name": "candidateAddress",
              "type": "address"
            },
            {
              "internalType": "bool",
              "name": "isRegistered",
              "type": "bool"
            },
            {
              "internalType": "bool",
              "name": "isVerified",
              "type": "bool"
            },
            {
              "internalType": "uint256",
              "name": "experienceCount",
              "type": "uint256"
            }
          ],
          "internalType": "struct CandidateContract.Candidate",
          "name": "",
          "type": "tuple"
        },
        {
          "components": [
            {
              "internalType": "uint256",
              "name": "id",
              "type": "uint256"
            },
            {
              "internalType": "string",
              "name": "hash",
              "type": "string"
            },
            {
              "internalType": "string",
              "name": "title",
              "type": "string"
            },
            {
              "internalType": "uint256",
              "name": "experienceType",
              "type": "uint256"
            },
            {
              "internalType": "uint256",
              "name": "candidateId",
              "type": "uint256"
            },
            {
              "internalType": "address",
              "name": "author",
              "type": "address"
            },
            {
              "internalType": "bool",
              "name": "isVerified",
              "type": "bool"
            },
            {
              "internalType": "address",
              "name": "verifiableBy",
              "type": "address"
            },
            {
              "internalType": "uint256",
              "name": "verificationDate",
              "type": "uint256"
            }
          ],
          "internalType": "struct CandidateContract.Experience[]",
          "name": "",
          "type": "tuple[]"
        },
        {
          "internalType": "uint256",
          "name": "",
          "type": "uint256"
        },
        {
          "internalType": "uint256",
          "name": "",
          "type": "uint256"
        }
      ],
      "stateMutability": "view",
      "type": "function",
      "constant": true
    },
    {
      "inputs": [],
      "name": "getCandidate",
      "outputs": [
        {
          "components": [
            {
              "internalType": "uint256",
              "name": "id",
              "type": "uint256"
            },
            {
              "internalType": "string",
              "name": "dni",
              "type": "string"
            },
            {
              "internalType": "string",
              "name": "name",
              "type": "string"
            },
            {
              "internalType": "string",
              "name": "lastName",
              "type": "string"
            },
            {
              "internalType": "string",
              "name": "secondLastName",
              "type": "string"
            },
            {
              "internalType": "string",
              "name": "postalAddress",
              "type": "string"
            },
            {
              "internalType": "string",
              "name": "emailAddress",
              "type": "string"
            },
            {
              "internalType": "address",
              "name": "candidateAddress",
              "type": "address"
            },
            {
              "internalType": "bool",
              "name": "isRegistered",
              "type": "bool"
            },
            {
              "internalType": "bool",
              "name": "isVerified",
              "type": "bool"
            },
            {
              "internalType": "uint256",
              "name": "experienceCount",
              "type": "uint256"
            }
          ],
          "internalType": "struct CandidateContract.Candidate",
          "name": "",
          "type": "tuple"
        },
        {
          "components": [
            {
              "internalType": "uint256",
              "name": "id",
              "type": "uint256"
            },
            {
              "internalType": "string",
              "name": "hash",
              "type": "string"
            },
            {
              "internalType": "string",
              "name": "title",
              "type": "string"
            },
            {
              "internalType": "uint256",
              "name": "experienceType",
              "type": "uint256"
            },
            {
              "internalType": "uint256",
              "name": "candidateId",
              "type": "uint256"
            },
            {
              "internalType": "address",
              "name": "author",
              "type": "address"
            },
            {
              "internalType": "bool",
              "name": "isVerified",
              "type": "bool"
            },
            {
              "internalType": "address",
              "name": "verifiableBy",
              "type": "address"
            },
            {
              "internalType": "uint256",
              "name": "verificationDate",
              "type": "uint256"
            }
          ],
          "internalType": "struct CandidateContract.Experience[]",
          "name": "",
          "type": "tuple[]"
        }
      ],
      "stateMutability": "view",
      "type": "function",
      "constant": true
    },
    {
      "inputs": [],
      "name": "getRegisteredCandidateCount",
      "outputs": [
        {
          "internalType": "uint256",
          "name": "",
          "type": "uint256"
        }
      ],
      "stateMutability": "view",
      "type": "function",
      "constant": true
    },
    {
      "inputs": [
        {
          "internalType": "address",
          "name": "_address",
          "type": "address"
        }
      ],
      "name": "getExperienceCountByCandidate",
      "outputs": [
        {
          "internalType": "uint256",
          "name": "",
          "type": "uint256"
        }
      ],
      "stateMutability": "view",
      "type": "function",
      "constant": true
    },
    {
      "inputs": [
        {
          "components": [
            {
              "internalType": "uint256",
              "name": "id",
              "type": "uint256"
            },
            {
              "internalType": "string",
              "name": "hash",
              "type": "string"
            },
            {
              "internalType": "string",
              "name": "title",
              "type": "string"
            },
            {
              "internalType": "uint256",
              "name": "experienceType",
              "type": "uint256"
            },
            {
              "internalType": "uint256",
              "name": "candidateId",
              "type": "uint256"
            },
            {
              "internalType": "address",
              "name": "author",
              "type": "address"
            },
            {
              "internalType": "bool",
              "name": "isVerified",
              "type": "bool"
            },
            {
              "internalType": "address",
              "name": "verifiableBy",
              "type": "address"
            },
            {
              "internalType": "uint256",
              "name": "verificationDate",
              "type": "uint256"
            }
          ],
          "internalType": "struct CandidateContract.Experience[]",
          "name": "experiences",
          "type": "tuple[]"
        }
      ],
      "name": "addExperiences",
      "outputs": [],
      "stateMutability": "nonpayable",
      "type": "function"
    },
    {
      "inputs": [
        {
          "internalType": "address",
          "name": "_candidateAddress",
          "type": "address"
        }
      ],
      "name": "getUnverifiedExperiencesByCandidate",
      "outputs": [
        {
          "components": [
            {
              "internalType": "uint256",
              "name": "id",
              "type": "uint256"
            },
            {
              "internalType": "string",
              "name": "hash",
              "type": "string"
            },
            {
              "internalType": "string",
              "name": "title",
              "type": "string"
            },
            {
              "internalType": "uint256",
              "name": "experienceType",
              "type": "uint256"
            },
            {
              "internalType": "uint256",
              "name": "candidateId",
              "type": "uint256"
            },
            {
              "internalType": "address",
              "name": "author",
              "type": "address"
            },
            {
              "internalType": "bool",
              "name": "isVerified",
              "type": "bool"
            },
            {
              "internalType": "address",
              "name": "verifiableBy",
              "type": "address"
            },
            {
              "internalType": "uint256",
              "name": "verificationDate",
              "type": "uint256"
            }
          ],
          "internalType": "struct CandidateContract.Experience[]",
          "name": "",
          "type": "tuple[]"
        }
      ],
      "stateMutability": "view",
      "type": "function",
      "constant": true
    },
    {
      "inputs": [],
      "name": "getVerifiableCandidates",
      "outputs": [
        {
          "components": [
            {
              "internalType": "uint256",
              "name": "id",
              "type": "uint256"
            },
            {
              "internalType": "string",
              "name": "dni",
              "type": "string"
            },
            {
              "internalType": "string",
              "name": "name",
              "type": "string"
            },
            {
              "internalType": "string",
              "name": "lastName",
              "type": "string"
            },
            {
              "internalType": "string",
              "name": "secondLastName",
              "type": "string"
            },
            {
              "internalType": "string",
              "name": "postalAddress",
              "type": "string"
            },
            {
              "internalType": "string",
              "name": "emailAddress",
              "type": "string"
            },
            {
              "internalType": "address",
              "name": "candidateAddress",
              "type": "address"
            },
            {
              "internalType": "bool",
              "name": "isRegistered",
              "type": "bool"
            },
            {
              "internalType": "bool",
              "name": "isVerified",
              "type": "bool"
            },
            {
              "internalType": "uint256",
              "name": "experienceCount",
              "type": "uint256"
            }
          ],
          "internalType": "struct CandidateContract.Candidate[]",
          "name": "",
          "type": "tuple[]"
        }
      ],
      "stateMutability": "view",
      "type": "function",
      "constant": true
    },
    {
      "inputs": [
        {
          "components": [
            {
              "internalType": "uint256",
              "name": "id",
              "type": "uint256"
            },
            {
              "internalType": "string",
              "name": "hash",
              "type": "string"
            },
            {
              "internalType": "string",
              "name": "title",
              "type": "string"
            },
            {
              "internalType": "uint256",
              "name": "experienceType",
              "type": "uint256"
            },
            {
              "internalType": "uint256",
              "name": "candidateId",
              "type": "uint256"
            },
            {
              "internalType": "address",
              "name": "author",
              "type": "address"
            },
            {
              "internalType": "bool",
              "name": "isVerified",
              "type": "bool"
            },
            {
              "internalType": "address",
              "name": "verifiableBy",
              "type": "address"
            },
            {
              "internalType": "uint256",
              "name": "verificationDate",
              "type": "uint256"
            }
          ],
          "internalType": "struct CandidateContract.Experience[]",
          "name": "experiences",
          "type": "tuple[]"
        },
        {
          "internalType": "address",
          "name": "_candidateAddress",
          "type": "address"
        }
      ],
      "name": "verifyExperiences",
      "outputs": [],
      "stateMutability": "nonpayable",
      "type": "function"
    },
    {
      "inputs": [],
      "name": "getViewResumeTime",
      "outputs": [
        {
          "internalType": "uint256",
          "name": "",
          "type": "uint256"
        }
      ],
      "stateMutability": "nonpayable",
      "type": "function"
    },
    {
      "inputs": [
        {
          "internalType": "uint256",
          "name": "_viewResumeTime",
          "type": "uint256"
        }
      ],
      "name": "setViewResumeTime",
      "outputs": [],
      "stateMutability": "nonpayable",
      "type": "function"
    },
    {
      "inputs": [],
      "name": "getAuthorizedVerifierCount",
      "outputs": [
        {
          "internalType": "uint256",
          "name": "",
          "type": "uint256"
        }
      ],
      "stateMutability": "view",
      "type": "function",
      "constant": true
    },
    {
      "inputs": [],
      "name": "getAuthorizedRecruiterCount",
      "outputs": [
        {
          "internalType": "uint256",
          "name": "",
          "type": "uint256"
        }
      ],
      "stateMutability": "view",
      "type": "function",
      "constant": true
    },
    {
      "inputs": [],
      "name": "getUserRole",
      "outputs": [
        {
          "internalType": "uint256",
          "name": "",
          "type": "uint256"
        }
      ],
      "stateMutability": "view",
      "type": "function",
      "constant": true
    }
  ],
  "bytecode": "0x60806040523480156200001157600080fd5b5060405162005653380380620056538339818101604052810190620000379190620000e6565b336000806101000a81548173ffffffffffffffffffffffffffffffffffffffff021916908373ffffffffffffffffffffffffffffffffffffffff1602179055506000600181905550607860028190555080600360006101000a81548173ffffffffffffffffffffffffffffffffffffffff021916908373ffffffffffffffffffffffffffffffffffffffff160217905550506200017f565b600081519050620000e08162000165565b92915050565b600060208284031215620000ff57620000fe62000160565b5b60006200010f84828501620000cf565b91505092915050565b6000620001258262000140565b9050919050565b6000620001398262000118565b9050919050565b600073ffffffffffffffffffffffffffffffffffffffff82169050919050565b600080fd5b62000170816200012c565b81146200017c57600080fd5b50565b6154c4806200018f6000396000f3fe608060405234801561001057600080fd5b50600436106101165760003560e01c806398dcc000116100a2578063bacc8a9a11610071578063bacc8a9a146102e7578063bf04a10d14610305578063de82edc414610323578063ed16d41f1461033f578063f1a683021461035d57610116565b806398dcc0001461025f5780639fbfb8431461027d578063a93e35ed146102ad578063b868eadd146102cb57610116565b8063396b9ae0116100e9578063396b9ae0146101b8578063507a3acc146101d657806370218b8514610206578063893d20e8146102255780638c0b0b861461024357610116565b8063042ce4f81461011b5780630a44367c1461014e5780631b0043df1461016c57806323b1c7ea14610188575b600080fd5b61013560048036038101906101309190614407565b610379565b6040516101459493929190614e2a565b60405180910390f35b610156610a49565b6040516101639190614ccf565b60405180910390f35b61018660048036038101906101819190614490565b611295565b005b6101a2600480360381019061019d91906143c7565b611a1a565b6040516101af9190614e7d565b60405180910390f35b6101c0611a3f565b6040516101cd9190614ccf565b60405180910390f35b6101f060048036038101906101eb919061439a565b61200a565b6040516101fd9190614cf1565b60405180910390f35b61020e61265b565b60405161021c929190614df3565b60405180910390f35b61022d612b6f565b60405161023a9190614cb4565b60405180910390f35b61025d60048036038101906102589190614447565b612b98565b005b610267612cf9565b6040516102749190614e7d565b60405180910390f35b6102976004803603810190610292919061439a565b612da0565b6040516102a49190614e7d565b60405180910390f35b6102b5612e82565b6040516102c29190614e7d565b60405180910390f35b6102e560048036038101906102e09190614697565b612e8c565b005b6102ef612f24565b6040516102fc9190614e7d565b60405180910390f35b61030d612fcb565b60405161031a9190614e7d565b60405180910390f35b61033d600480360381019061033891906144d9565b6130c8565b005b610347613642565b6040516103549190614e7d565b60405180910390f35b61037760048036038101906103729190614562565b61364c565b005b610381613ebe565b60606000803361039081613964565b6103cf576040517f08c379a00000000000000000000000000000000000000000000000000000000081526004016103c690614d73565b60405180910390fd5b6000600760008973ffffffffffffffffffffffffffffffffffffffff1673ffffffffffffffffffffffffffffffffffffffff16815260200190815260200160002060003373ffffffffffffffffffffffffffffffffffffffff1673ffffffffffffffffffffffffffffffffffffffff168152602001908152602001600020541161048e576040517f08c379a000000000000000000000000000000000000000000000000000000000815260040161048590614d53565b60405180910390fd5b85600760008973ffffffffffffffffffffffffffffffffffffffff1673ffffffffffffffffffffffffffffffffffffffff16815260200190815260200160002060003373ffffffffffffffffffffffffffffffffffffffff1673ffffffffffffffffffffffffffffffffffffffff16815260200190815260200160002054101561054d576040517f08c379a000000000000000000000000000000000000000000000000000000000815260040161054490614d33565b60405180910390fd5b6000600660008973ffffffffffffffffffffffffffffffffffffffff1673ffffffffffffffffffffffffffffffffffffffff16815260200190815260200160002060405180610160016040529081600082015481526020016001820180546105b4906150d0565b80601f01602080910402602001604051908101604052809291908181526020018280546105e0906150d0565b801561062d5780601f106106025761010080835404028352916020019161062d565b820191906000526020600020905b81548152906001019060200180831161061057829003601f168201915b50505050508152602001600282018054610646906150d0565b80601f0160208091040260200160405190810160405280929190818152602001828054610672906150d0565b80156106bf5780601f10610694576101008083540402835291602001916106bf565b820191906000526020600020905b8154815290600101906020018083116106a257829003601f168201915b505050505081526020016003820180546106d8906150d0565b80601f0160208091040260200160405190810160405280929190818152602001828054610704906150d0565b80156107515780601f1061072657610100808354040283529160200191610751565b820191906000526020600020905b81548152906001019060200180831161073457829003601f168201915b5050505050815260200160048201805461076a906150d0565b80601f0160208091040260200160405190810160405280929190818152602001828054610796906150d0565b80156107e35780601f106107b8576101008083540402835291602001916107e3565b820191906000526020600020905b8154815290600101906020018083116107c657829003601f168201915b505050505081526020016005820180546107fc906150d0565b80601f0160208091040260200160405190810160405280929190818152602001828054610828906150d0565b80156108755780601f1061084a57610100808354040283529160200191610875565b820191906000526020600020905b81548152906001019060200180831161085857829003601f168201915b5050505050815260200160068201805461088e906150d0565b80601f01602080910402602001604051908101604052809291908181526020018280546108ba906150d0565b80156109075780601f106108dc57610100808354040283529160200191610907565b820191906000526020600020905b8154815290600101906020018083116108ea57829003601f168201915b505050505081526020016007820160009054906101000a900473ffffffffffffffffffffffffffffffffffffffff1673ffffffffffffffffffffffffffffffffffffffff1673ffffffffffffffffffffffffffffffffffffffff1681526020016007820160149054906101000a900460ff161515151581526020016007820160159054906101000a900460ff16151515158152602001600882015481525050905060006109b389613a18565b90508181600760008c73ffffffffffffffffffffffffffffffffffffffff1673ffffffffffffffffffffffffffffffffffffffff16815260200190815260200160002060003373ffffffffffffffffffffffffffffffffffffffff1673ffffffffffffffffffffffffffffffffffffffff168152602001908152602001600020548a965096509650965050505092959194509250565b606033610a5581613db1565b610a94576040517f08c379a0000000000000000000000000000000000000000000000000000000008152600401610a8b90614d93565b60405180910390fd5b6000805b600960003373ffffffffffffffffffffffffffffffffffffffff1673ffffffffffffffffffffffffffffffffffffffff16815260200190815260200160002080549050811015610c0e5760086000600960003373ffffffffffffffffffffffffffffffffffffffff1673ffffffffffffffffffffffffffffffffffffffff1681526020019081526020016000208381548110610b3757610b366151da565b5b9060005260206000200160009054906101000a900473ffffffffffffffffffffffffffffffffffffffff1673ffffffffffffffffffffffffffffffffffffffff1673ffffffffffffffffffffffffffffffffffffffff16815260200190815260200160002060003373ffffffffffffffffffffffffffffffffffffffff1673ffffffffffffffffffffffffffffffffffffffff16815260200190815260200160002060009054906101000a900460ff1615610bfb578180610bf790615133565b9250505b8080610c0690615133565b915050610a98565b5060008167ffffffffffffffff811115610c2b57610c2a615209565b5b604051908082528060200260200182016040528015610c6457816020015b610c51613ebe565b815260200190600190039081610c495790505b50905060005b600960003373ffffffffffffffffffffffffffffffffffffffff1673ffffffffffffffffffffffffffffffffffffffff1681526020019081526020016000208054905081101561128b5760086000600960003373ffffffffffffffffffffffffffffffffffffffff1673ffffffffffffffffffffffffffffffffffffffff1681526020019081526020016000208381548110610d0957610d086151da565b5b9060005260206000200160009054906101000a900473ffffffffffffffffffffffffffffffffffffffff1673ffffffffffffffffffffffffffffffffffffffff1673ffffffffffffffffffffffffffffffffffffffff16815260200190815260200160002060003373ffffffffffffffffffffffffffffffffffffffff1673ffffffffffffffffffffffffffffffffffffffff16815260200190815260200160002060009054906101000a900460ff16156112785760006006600060058481548110610dd857610dd76151da565b5b9060005260206000200160009054906101000a900473ffffffffffffffffffffffffffffffffffffffff1673ffffffffffffffffffffffffffffffffffffffff1673ffffffffffffffffffffffffffffffffffffffff1681526020019081526020016000209050806040518061016001604052908160008201548152602001600182018054610e66906150d0565b80601f0160208091040260200160405190810160405280929190818152602001828054610e92906150d0565b8015610edf5780601f10610eb457610100808354040283529160200191610edf565b820191906000526020600020905b815481529060010190602001808311610ec257829003601f168201915b50505050508152602001600282018054610ef8906150d0565b80601f0160208091040260200160405190810160405280929190818152602001828054610f24906150d0565b8015610f715780601f10610f4657610100808354040283529160200191610f71565b820191906000526020600020905b815481529060010190602001808311610f5457829003601f168201915b50505050508152602001600382018054610f8a906150d0565b80601f0160208091040260200160405190810160405280929190818152602001828054610fb6906150d0565b80156110035780601f10610fd857610100808354040283529160200191611003565b820191906000526020600020905b815481529060010190602001808311610fe657829003601f168201915b5050505050815260200160048201805461101c906150d0565b80601f0160208091040260200160405190810160405280929190818152602001828054611048906150d0565b80156110955780601f1061106a57610100808354040283529160200191611095565b820191906000526020600020905b81548152906001019060200180831161107857829003601f168201915b505050505081526020016005820180546110ae906150d0565b80601f01602080910402602001604051908101604052809291908181526020018280546110da906150d0565b80156111275780601f106110fc57610100808354040283529160200191611127565b820191906000526020600020905b81548152906001019060200180831161110a57829003601f168201915b50505050508152602001600682018054611140906150d0565b80601f016020809104026020016040519081016040528092919081815260200182805461116c906150d0565b80156111b95780601f1061118e576101008083540402835291602001916111b9565b820191906000526020600020905b81548152906001019060200180831161119c57829003601f168201915b505050505081526020016007820160009054906101000a900473ffffffffffffffffffffffffffffffffffffffff1673ffffffffffffffffffffffffffffffffffffffff1673ffffffffffffffffffffffffffffffffffffffff1681526020016007820160149054906101000a900460ff161515151581526020016007820160159054906101000a900460ff1615151515815260200160088201548152505083838151811061126b5761126a6151da565b5b6020026020010181905250505b808061128390615133565b915050610c6a565b5080935050505090565b60011515600660003373ffffffffffffffffffffffffffffffffffffffff1673ffffffffffffffffffffffffffffffffffffffff16815260200190815260200160002060070160149054906101000a900460ff1615151461132b576040517f08c379a000000000000000000000000000000000000000000000000000000000815260040161132290614dd3565b60405180910390fd5b60005b81518110156119df576000604051806101200160405280600660003373ffffffffffffffffffffffffffffffffffffffff1673ffffffffffffffffffffffffffffffffffffffff1681526020019081526020016000206008015481526020018484815181106113a05761139f6151da565b5b60200260200101516020015181526020018484815181106113c4576113c36151da565b5b60200260200101516040015181526020018484815181106113e8576113e76151da565b5b6020026020010151606001518152602001600660003373ffffffffffffffffffffffffffffffffffffffff1673ffffffffffffffffffffffffffffffffffffffff1681526020019081526020016000206000015481526020013373ffffffffffffffffffffffffffffffffffffffff168152602001600015158152602001848481518110611479576114786151da565b5b602002602001015160e0015173ffffffffffffffffffffffffffffffffffffffff1681526020016000815250905080600460003373ffffffffffffffffffffffffffffffffffffffff1673ffffffffffffffffffffffffffffffffffffffff1681526020019081526020016000206000600660003373ffffffffffffffffffffffffffffffffffffffff1673ffffffffffffffffffffffffffffffffffffffff168152602001908152602001600020600801548152602001908152602001600020600082015181600001556020820151816001019080519060200190611560929190613f32565b50604082015181600201908051906020019061157d929190613f32565b50606082015181600301556080820151816004015560a08201518160050160006101000a81548173ffffffffffffffffffffffffffffffffffffffff021916908373ffffffffffffffffffffffffffffffffffffffff16021790555060c08201518160050160146101000a81548160ff02191690831515021790555060e08201518160060160006101000a81548173ffffffffffffffffffffffffffffffffffffffff021916908373ffffffffffffffffffffffffffffffffffffffff1602179055506101008201518160070155905050600660003373ffffffffffffffffffffffffffffffffffffffff1673ffffffffffffffffffffffffffffffffffffffff16815260200190815260200160002060080160008154809291906116a190615133565b91905055506000600660003373ffffffffffffffffffffffffffffffffffffffff1673ffffffffffffffffffffffffffffffffffffffff16815260200190815260200160002060070160156101000a81548160ff0219169083151502179055506001600860003373ffffffffffffffffffffffffffffffffffffffff1673ffffffffffffffffffffffffffffffffffffffff1681526020019081526020016000206000858581518110611757576117566151da565b5b602002602001015160e0015173ffffffffffffffffffffffffffffffffffffffff1673ffffffffffffffffffffffffffffffffffffffff16815260200190815260200160002060006101000a81548160ff0219169083151502179055506000805b600960008686815181106117cf576117ce6151da565b5b602002602001015160e0015173ffffffffffffffffffffffffffffffffffffffff1673ffffffffffffffffffffffffffffffffffffffff16815260200190815260200160002080549050811015611905573373ffffffffffffffffffffffffffffffffffffffff166009600087878151811061184e5761184d6151da565b5b602002602001015160e0015173ffffffffffffffffffffffffffffffffffffffff1673ffffffffffffffffffffffffffffffffffffffff16815260200190815260200160002082815481106118a6576118a56151da565b5b9060005260206000200160009054906101000a900473ffffffffffffffffffffffffffffffffffffffff1673ffffffffffffffffffffffffffffffffffffffff1614156118f257600191505b80806118fd90615133565b9150506117b8565b50806119ca5760096000858581518110611922576119216151da565b5b602002602001015160e0015173ffffffffffffffffffffffffffffffffffffffff1673ffffffffffffffffffffffffffffffffffffffff168152602001908152602001600020339080600181540180825580915050600190039060005260206000200160009091909190916101000a81548173ffffffffffffffffffffffffffffffffffffffff021916908373ffffffffffffffffffffffffffffffffffffffff1602179055505b505080806119d790615133565b91505061132e565b507fe62bbaa8353f2583d18ad19c07fd6127451fc72430de5bd6e851a44ee168c48381604051611a0f9190614cf1565b60405180910390a150565b6007602052816000526040600020602052806000526040600020600091509150505481565b606060008054906101000a900473ffffffffffffffffffffffffffffffffffffffff1673ffffffffffffffffffffffffffffffffffffffff163373ffffffffffffffffffffffffffffffffffffffff1614611acf576040517f08c379a0000000000000000000000000000000000000000000000000000000008152600401611ac690614d13565b60405180910390fd5b600060015467ffffffffffffffff811115611aed57611aec615209565b5b604051908082528060200260200182016040528015611b2657816020015b611b13613ebe565b815260200190600190039081611b0b5790505b50905060005b6001548110156120025760006006600060058481548110611b5057611b4f6151da565b5b9060005260206000200160009054906101000a900473ffffffffffffffffffffffffffffffffffffffff1673ffffffffffffffffffffffffffffffffffffffff1673ffffffffffffffffffffffffffffffffffffffff1681526020019081526020016000209050806040518061016001604052908160008201548152602001600182018054611bde906150d0565b80601f0160208091040260200160405190810160405280929190818152602001828054611c0a906150d0565b8015611c575780601f10611c2c57610100808354040283529160200191611c57565b820191906000526020600020905b815481529060010190602001808311611c3a57829003601f168201915b50505050508152602001600282018054611c70906150d0565b80601f0160208091040260200160405190810160405280929190818152602001828054611c9c906150d0565b8015611ce95780601f10611cbe57610100808354040283529160200191611ce9565b820191906000526020600020905b815481529060010190602001808311611ccc57829003601f168201915b50505050508152602001600382018054611d02906150d0565b80601f0160208091040260200160405190810160405280929190818152602001828054611d2e906150d0565b8015611d7b5780601f10611d5057610100808354040283529160200191611d7b565b820191906000526020600020905b815481529060010190602001808311611d5e57829003601f168201915b50505050508152602001600482018054611d94906150d0565b80601f0160208091040260200160405190810160405280929190818152602001828054611dc0906150d0565b8015611e0d5780601f10611de257610100808354040283529160200191611e0d565b820191906000526020600020905b815481529060010190602001808311611df057829003601f168201915b50505050508152602001600582018054611e26906150d0565b80601f0160208091040260200160405190810160405280929190818152602001828054611e52906150d0565b8015611e9f5780601f10611e7457610100808354040283529160200191611e9f565b820191906000526020600020905b815481529060010190602001808311611e8257829003601f168201915b50505050508152602001600682018054611eb8906150d0565b80601f0160208091040260200160405190810160405280929190818152602001828054611ee4906150d0565b8015611f315780601f10611f0657610100808354040283529160200191611f31565b820191906000526020600020905b815481529060010190602001808311611f1457829003601f168201915b505050505081526020016007820160009054906101000a900473ffffffffffffffffffffffffffffffffffffffff1673ffffffffffffffffffffffffffffffffffffffff1673ffffffffffffffffffffffffffffffffffffffff1681526020016007820160149054906101000a900460ff161515151581526020016007820160159054906101000a900460ff16151515158152602001600882015481525050838381518110611fe357611fe26151da565b5b6020026020010181905250508080611ffa90615133565b915050611b2c565b508091505090565b60603361201681613db1565b612055576040517f08c379a000000000000000000000000000000000000000000000000000000000815260040161204c90614d93565b60405180910390fd5b6000805b600660008673ffffffffffffffffffffffffffffffffffffffff1673ffffffffffffffffffffffffffffffffffffffff168152602001908152602001600020600801548110156121d657600460008673ffffffffffffffffffffffffffffffffffffffff1673ffffffffffffffffffffffffffffffffffffffff168152602001908152602001600020600082815260200190815260200160002060050160149054906101000a900460ff161580156121af57503373ffffffffffffffffffffffffffffffffffffffff16600460008773ffffffffffffffffffffffffffffffffffffffff1673ffffffffffffffffffffffffffffffffffffffff168152602001908152602001600020600083815260200190815260200160002060060160009054906101000a900473ffffffffffffffffffffffffffffffffffffffff1673ffffffffffffffffffffffffffffffffffffffff16145b156121c35781806121bf90615133565b9250505b80806121ce90615133565b915050612059565b5060008167ffffffffffffffff8111156121f3576121f2615209565b5b60405190808252806020026020018201604052801561222c57816020015b612219613fb8565b8152602001906001900390816122115790505b5090506000805b600660008873ffffffffffffffffffffffffffffffffffffffff1673ffffffffffffffffffffffffffffffffffffffff1681526020019081526020016000206008015481101561264e57600460008873ffffffffffffffffffffffffffffffffffffffff1673ffffffffffffffffffffffffffffffffffffffff168152602001908152602001600020600082815260200190815260200160002060050160149054906101000a900460ff1615801561238957503373ffffffffffffffffffffffffffffffffffffffff16600460008973ffffffffffffffffffffffffffffffffffffffff1673ffffffffffffffffffffffffffffffffffffffff168152602001908152602001600020600083815260200190815260200160002060060160009054906101000a900473ffffffffffffffffffffffffffffffffffffffff1673ffffffffffffffffffffffffffffffffffffffff16145b801561239457508382105b1561263b576000600460008973ffffffffffffffffffffffffffffffffffffffff1673ffffffffffffffffffffffffffffffffffffffff16815260200190815260200160002060008381526020019081526020016000209050806040518061012001604052908160008201548152602001600182018054612414906150d0565b80601f0160208091040260200160405190810160405280929190818152602001828054612440906150d0565b801561248d5780601f106124625761010080835404028352916020019161248d565b820191906000526020600020905b81548152906001019060200180831161247057829003601f168201915b505050505081526020016002820180546124a6906150d0565b80601f01602080910402602001604051908101604052809291908181526020018280546124d2906150d0565b801561251f5780601f106124f45761010080835404028352916020019161251f565b820191906000526020600020905b81548152906001019060200180831161250257829003601f168201915b5050505050815260200160038201548152602001600482015481526020016005820160009054906101000a900473ffffffffffffffffffffffffffffffffffffffff1673ffffffffffffffffffffffffffffffffffffffff1673ffffffffffffffffffffffffffffffffffffffff1681526020016005820160149054906101000a900460ff161515151581526020016006820160009054906101000a900473ffffffffffffffffffffffffffffffffffffffff1673ffffffffffffffffffffffffffffffffffffffff1673ffffffffffffffffffffffffffffffffffffffff1681526020016007820154815250508484815181106126205761261f6151da565b5b6020026020010181905250828061263690615133565b935050505b808061264690615133565b915050612233565b5081945050505050919050565b612663613ebe565b606060011515600660003373ffffffffffffffffffffffffffffffffffffffff1673ffffffffffffffffffffffffffffffffffffffff16815260200190815260200160002060070160149054906101000a900460ff161515146126fb576040517f08c379a00000000000000000000000000000000000000000000000000000000081526004016126f290614dd3565b60405180910390fd5b6000600660003373ffffffffffffffffffffffffffffffffffffffff1673ffffffffffffffffffffffffffffffffffffffff1681526020019081526020016000206040518061016001604052908160008201548152602001600182018054612762906150d0565b80601f016020809104026020016040519081016040528092919081815260200182805461278e906150d0565b80156127db5780601f106127b0576101008083540402835291602001916127db565b820191906000526020600020905b8154815290600101906020018083116127be57829003601f168201915b505050505081526020016002820180546127f4906150d0565b80601f0160208091040260200160405190810160405280929190818152602001828054612820906150d0565b801561286d5780601f106128425761010080835404028352916020019161286d565b820191906000526020600020905b81548152906001019060200180831161285057829003601f168201915b50505050508152602001600382018054612886906150d0565b80601f01602080910402602001604051908101604052809291908181526020018280546128b2906150d0565b80156128ff5780601f106128d4576101008083540402835291602001916128ff565b820191906000526020600020905b8154815290600101906020018083116128e257829003601f168201915b50505050508152602001600482018054612918906150d0565b80601f0160208091040260200160405190810160405280929190818152602001828054612944906150d0565b80156129915780601f1061296657610100808354040283529160200191612991565b820191906000526020600020905b81548152906001019060200180831161297457829003601f168201915b505050505081526020016005820180546129aa906150d0565b80601f01602080910402602001604051908101604052809291908181526020018280546129d6906150d0565b8015612a235780601f106129f857610100808354040283529160200191612a23565b820191906000526020600020905b815481529060010190602001808311612a0657829003601f168201915b50505050508152602001600682018054612a3c906150d0565b80601f0160208091040260200160405190810160405280929190818152602001828054612a68906150d0565b8015612ab55780601f10612a8a57610100808354040283529160200191612ab5565b820191906000526020600020905b815481529060010190602001808311612a9857829003601f168201915b505050505081526020016007820160009054906101000a900473ffffffffffffffffffffffffffffffffffffffff1673ffffffffffffffffffffffffffffffffffffffff1673ffffffffffffffffffffffffffffffffffffffff1681526020016007820160149054906101000a900460ff161515151581526020016007820160159054906101000a900460ff1615151515815260200160088201548152505090506000612b6133613a18565b905081819350935050509091565b60008060009054906101000a900473ffffffffffffffffffffffffffffffffffffffff16905090565b60011515600660003373ffffffffffffffffffffffffffffffffffffffff1673ffffffffffffffffffffffffffffffffffffffff16815260200190815260200160002060070160149054906101000a900460ff16151514612c2e576040517f08c379a0000000000000000000000000000000000000000000000000000000008152600401612c2590614dd3565b60405180910390fd5b60005b8151811015612cf55760025442612c489190614ff0565b600760003373ffffffffffffffffffffffffffffffffffffffff1673ffffffffffffffffffffffffffffffffffffffff1681526020019081526020016000206000848481518110612c9c57612c9b6151da565b5b602002602001015173ffffffffffffffffffffffffffffffffffffffff1673ffffffffffffffffffffffffffffffffffffffff168152602001908152602001600020819055508080612ced90615133565b915050612c31565b5050565b6000600360009054906101000a900473ffffffffffffffffffffffffffffffffffffffff1673ffffffffffffffffffffffffffffffffffffffff166398dcc0006040518163ffffffff1660e01b815260040160206040518083038186803b158015612d6357600080fd5b505afa158015612d77573d6000803e3d6000fd5b505050506040513d601f19601f82011682018060405250810190612d9b91906146c4565b905090565b600060011515600660003373ffffffffffffffffffffffffffffffffffffffff1673ffffffffffffffffffffffffffffffffffffffff16815260200190815260200160002060070160149054906101000a900460ff16151514612e38576040517f08c379a0000000000000000000000000000000000000000000000000000000008152600401612e2f90614dd3565b60405180910390fd5b600660008373ffffffffffffffffffffffffffffffffffffffff1673ffffffffffffffffffffffffffffffffffffffff168152602001908152602001600020600801549050919050565b6000600254905090565b60008054906101000a900473ffffffffffffffffffffffffffffffffffffffff1673ffffffffffffffffffffffffffffffffffffffff163373ffffffffffffffffffffffffffffffffffffffff1614612f1a576040517f08c379a0000000000000000000000000000000000000000000000000000000008152600401612f1190614d13565b60405180910390fd5b8060028190555050565b6000600360009054906101000a900473ffffffffffffffffffffffffffffffffffffffff1673ffffffffffffffffffffffffffffffffffffffff1663bacc8a9a6040518163ffffffff1660e01b815260040160206040518083038186803b158015612f8e57600080fd5b505afa158015612fa2573d6000803e3d6000fd5b505050506040513d601f19601f82011682018060405250810190612fc691906146c4565b905090565b6000806000905060011515600660003373ffffffffffffffffffffffffffffffffffffffff1673ffffffffffffffffffffffffffffffffffffffff16815260200190815260200160002060070160149054906101000a900460ff161515141561303757600190506130c1565b61304033613964565b1561304e57600290506130c0565b61305733613db1565b1561306557600390506130bf565b60008054906101000a900473ffffffffffffffffffffffffffffffffffffffff1673ffffffffffffffffffffffffffffffffffffffff163373ffffffffffffffffffffffffffffffffffffffff1614156130be57600590505b5b5b5b8091505090565b336130d281613db1565b613111576040517f08c379a000000000000000000000000000000000000000000000000000000000815260040161310890614d93565b60405180910390fd5b60006001905060006001905060005b600660008673ffffffffffffffffffffffffffffffffffffffff1673ffffffffffffffffffffffffffffffffffffffff168152602001908152602001600020600801548110156134305760005b865181101561335657613279600460008873ffffffffffffffffffffffffffffffffffffffff1673ffffffffffffffffffffffffffffffffffffffff168152602001908152602001600020600084815260200190815260200160002060010180546131d7906150d0565b80601f0160208091040260200160405190810160405280929190818152602001828054613203906150d0565b80156132505780601f1061322557610100808354040283529160200191613250565b820191906000526020600020905b81548152906001019060200180831161323357829003601f168201915b5050505050888381518110613268576132676151da565b5b602002602001015160200151613e65565b15613343576001600460008873ffffffffffffffffffffffffffffffffffffffff1673ffffffffffffffffffffffffffffffffffffffff168152602001908152602001600020600084815260200190815260200160002060050160146101000a81548160ff02191690831515021790555042600460008873ffffffffffffffffffffffffffffffffffffffff1673ffffffffffffffffffffffffffffffffffffffff1681526020019081526020016000206000848152602001908152602001600020600701819055505b808061334e90615133565b91505061316d565b508280156133c15750600460008673ffffffffffffffffffffffffffffffffffffffff1673ffffffffffffffffffffffffffffffffffffffff168152602001908152602001600020600082815260200190815260200160002060050160149054906101000a900460ff165b925082600660008773ffffffffffffffffffffffffffffffffffffffff1673ffffffffffffffffffffffffffffffffffffffff16815260200190815260200160002060070160156101000a81548160ff021916908315150217905550808061342890615133565b915050613120565b5060005b600660008673ffffffffffffffffffffffffffffffffffffffff1673ffffffffffffffffffffffffffffffffffffffff168152602001908152602001600020600801548110156135a5573373ffffffffffffffffffffffffffffffffffffffff16600460008773ffffffffffffffffffffffffffffffffffffffff1673ffffffffffffffffffffffffffffffffffffffff168152602001908152602001600020600083815260200190815260200160002060060160009054906101000a900473ffffffffffffffffffffffffffffffffffffffff1673ffffffffffffffffffffffffffffffffffffffff1614156135925781801561358f5750600460008673ffffffffffffffffffffffffffffffffffffffff1673ffffffffffffffffffffffffffffffffffffffff168152602001908152602001600020600082815260200190815260200160002060050160149054906101000a900460ff165b91505b808061359d90615133565b915050613434565b508015600860008673ffffffffffffffffffffffffffffffffffffffff1673ffffffffffffffffffffffffffffffffffffffff16815260200190815260200160002060003373ffffffffffffffffffffffffffffffffffffffff1673ffffffffffffffffffffffffffffffffffffffff16815260200190815260200160002060006101000a81548160ff0219169083151502179055505050505050565b6000600154905090565b60001515600660003373ffffffffffffffffffffffffffffffffffffffff1673ffffffffffffffffffffffffffffffffffffffff16815260200190815260200160002060070160149054906101000a900460ff161515146136e2576040517f08c379a00000000000000000000000000000000000000000000000000000000081526004016136d990614db3565b60405180910390fd5b600060405180610160016040528060015481526020018881526020018781526020018681526020018581526020018481526020018381526020013373ffffffffffffffffffffffffffffffffffffffff1681526020016001151581526020016000151581526020016000815250905080600660003373ffffffffffffffffffffffffffffffffffffffff1673ffffffffffffffffffffffffffffffffffffffff1681526020019081526020016000206000820151816000015560208201518160010190805190602001906137b7929190613f32565b5060408201518160020190805190602001906137d4929190613f32565b5060608201518160030190805190602001906137f1929190613f32565b50608082015181600401908051906020019061380e929190613f32565b5060a082015181600501908051906020019061382b929190613f32565b5060c0820151816006019080519060200190613848929190613f32565b5060e08201518160070160006101000a81548173ffffffffffffffffffffffffffffffffffffffff021916908373ffffffffffffffffffffffffffffffffffffffff1602179055506101008201518160070160146101000a81548160ff0219169083151502179055506101208201518160070160156101000a81548160ff02191690831515021790555061014082015181600801559050506005339080600181540180825580915050600190039060005260206000200160009091909190916101000a81548173ffffffffffffffffffffffffffffffffffffffff021916908373ffffffffffffffffffffffffffffffffffffffff1602179055506001600081548092919061395690615133565b919050555050505050505050565b6000600360009054906101000a900473ffffffffffffffffffffffffffffffffffffffff1673ffffffffffffffffffffffffffffffffffffffff1663e6f9cad2836040518263ffffffff1660e01b81526004016139c19190614cb4565b60206040518083038186803b1580156139d957600080fd5b505afa1580156139ed573d6000803e3d6000fd5b505050506040513d601f19601f82011682018060405250810190613a119190614535565b9050919050565b60606000600660008473ffffffffffffffffffffffffffffffffffffffff1673ffffffffffffffffffffffffffffffffffffffff1681526020019081526020016000206008015467ffffffffffffffff811115613a7857613a77615209565b5b604051908082528060200260200182016040528015613ab157816020015b613a9e613fb8565b815260200190600190039081613a965790505b50905060005b600660008573ffffffffffffffffffffffffffffffffffffffff1673ffffffffffffffffffffffffffffffffffffffff16815260200190815260200160002060080154811015613da7576000600460008673ffffffffffffffffffffffffffffffffffffffff1673ffffffffffffffffffffffffffffffffffffffff16815260200190815260200160002060008381526020019081526020016000209050806040518061012001604052908160008201548152602001600182018054613b7c906150d0565b80601f0160208091040260200160405190810160405280929190818152602001828054613ba8906150d0565b8015613bf55780601f10613bca57610100808354040283529160200191613bf5565b820191906000526020600020905b815481529060010190602001808311613bd857829003601f168201915b50505050508152602001600282018054613c0e906150d0565b80601f0160208091040260200160405190810160405280929190818152602001828054613c3a906150d0565b8015613c875780601f10613c5c57610100808354040283529160200191613c87565b820191906000526020600020905b815481529060010190602001808311613c6a57829003601f168201915b5050505050815260200160038201548152602001600482015481526020016005820160009054906101000a900473ffffffffffffffffffffffffffffffffffffffff1673ffffffffffffffffffffffffffffffffffffffff1673ffffffffffffffffffffffffffffffffffffffff1681526020016005820160149054906101000a900460ff161515151581526020016006820160009054906101000a900473ffffffffffffffffffffffffffffffffffffffff1673ffffffffffffffffffffffffffffffffffffffff1673ffffffffffffffffffffffffffffffffffffffff168152602001600782015481525050838381518110613d8857613d876151da565b5b6020026020010181905250508080613d9f90615133565b915050613ab7565b5080915050919050565b6000600360009054906101000a900473ffffffffffffffffffffffffffffffffffffffff1673ffffffffffffffffffffffffffffffffffffffff16636cacbf30836040518263ffffffff1660e01b8152600401613e0e9190614cb4565b60206040518083038186803b158015613e2657600080fd5b505afa158015613e3a573d6000803e3d6000fd5b505050506040513d601f19601f82011682018060405250810190613e5e9190614535565b9050919050565b600081604051602001613e789190614c9d565b6040516020818303038152906040528051906020012083604051602001613e9f9190614c9d565b6040516020818303038152906040528051906020012014905092915050565b60405180610160016040528060008152602001606081526020016060815260200160608152602001606081526020016060815260200160608152602001600073ffffffffffffffffffffffffffffffffffffffff168152602001600015158152602001600015158152602001600081525090565b828054613f3e906150d0565b90600052602060002090601f016020900481019282613f605760008555613fa7565b82601f10613f7957805160ff1916838001178555613fa7565b82800160010185558215613fa7579182015b82811115613fa6578251825591602001919060010190613f8b565b5b509050613fb49190614032565b5090565b6040518061012001604052806000815260200160608152602001606081526020016000815260200160008152602001600073ffffffffffffffffffffffffffffffffffffffff168152602001600015158152602001600073ffffffffffffffffffffffffffffffffffffffff168152602001600081525090565b5b8082111561404b576000816000905550600101614033565b5090565b600061406261405d84614ebd565b614e98565b9050808382526020820190508285602086028201111561408557614084615247565b5b60005b858110156140b5578161409b888261418f565b845260208401935060208301925050600181019050614088565b5050509392505050565b60006140d26140cd84614ee9565b614e98565b905080838252602082019050828560208602820111156140f5576140f4615247565b5b60005b8581101561414357813567ffffffffffffffff81111561411b5761411a615238565b5b8086016141288982614258565b855260208501945060208401935050506001810190506140f8565b5050509392505050565b600061416061415b84614f15565b614e98565b90508281526020810184848401111561417c5761417b61524c565b5b61418784828561508e565b509392505050565b60008135905061419e81615449565b92915050565b600082601f8301126141b9576141b8615238565b5b81356141c984826020860161404f565b91505092915050565b600082601f8301126141e7576141e6615238565b5b81356141f78482602086016140bf565b91505092915050565b60008135905061420f81615460565b92915050565b60008151905061422481615460565b92915050565b600082601f83011261423f5761423e615238565b5b813561424f84826020860161414d565b91505092915050565b6000610120828403121561426f5761426e61523d565b5b61427a610120614e98565b9050600061428a84828501614370565b600083015250602082013567ffffffffffffffff8111156142ae576142ad615242565b5b6142ba8482850161422a565b602083015250604082013567ffffffffffffffff8111156142de576142dd615242565b5b6142ea8482850161422a565b60408301525060606142fe84828501614370565b606083015250608061431284828501614370565b60808301525060a06143268482850161418f565b60a08301525060c061433a84828501614200565b60c08301525060e061434e8482850161418f565b60e08301525061010061436384828501614370565b6101008301525092915050565b60008135905061437f81615477565b92915050565b60008151905061439481615477565b92915050565b6000602082840312156143b0576143af615256565b5b60006143be8482850161418f565b91505092915050565b600080604083850312156143de576143dd615256565b5b60006143ec8582860161418f565b92505060206143fd8582860161418f565b9150509250929050565b6000806040838503121561441e5761441d615256565b5b600061442c8582860161418f565b925050602061443d85828601614370565b9150509250929050565b60006020828403121561445d5761445c615256565b5b600082013567ffffffffffffffff81111561447b5761447a615251565b5b614487848285016141a4565b91505092915050565b6000602082840312156144a6576144a5615256565b5b600082013567ffffffffffffffff8111156144c4576144c3615251565b5b6144d0848285016141d2565b91505092915050565b600080604083850312156144f0576144ef615256565b5b600083013567ffffffffffffffff81111561450e5761450d615251565b5b61451a858286016141d2565b925050602061452b8582860161418f565b9150509250929050565b60006020828403121561454b5761454a615256565b5b600061455984828501614215565b91505092915050565b60008060008060008060c0878903121561457f5761457e615256565b5b600087013567ffffffffffffffff81111561459d5761459c615251565b5b6145a989828a0161422a565b965050602087013567ffffffffffffffff8111156145ca576145c9615251565b5b6145d689828a0161422a565b955050604087013567ffffffffffffffff8111156145f7576145f6615251565b5b61460389828a0161422a565b945050606087013567ffffffffffffffff81111561462457614623615251565b5b61463089828a0161422a565b935050608087013567ffffffffffffffff81111561465157614650615251565b5b61465d89828a0161422a565b92505060a087013567ffffffffffffffff81111561467e5761467d615251565b5b61468a89828a0161422a565b9150509295509295509295565b6000602082840312156146ad576146ac615256565b5b60006146bb84828501614370565b91505092915050565b6000602082840312156146da576146d9615256565b5b60006146e884828501614385565b91505092915050565b60006146fd838361498f565b905092915050565b60006147118383614bb3565b905092915050565b61472281615046565b82525050565b61473181615046565b82525050565b600061474282614f66565b61474c8185614fa1565b93508360208202850161475e85614f46565b8060005b8581101561479a578484038952815161477b85826146f1565b945061478683614f87565b925060208a01995050600181019050614762565b50829750879550505050505092915050565b60006147b782614f71565b6147c18185614fb2565b9350836020820285016147d385614f56565b8060005b8581101561480f57848403895281516147f08582614705565b94506147fb83614f94565b925060208a019950506001810190506147d7565b50829750879550505050505092915050565b61482a81615058565b82525050565b600061483b82614f7c565b6148458185614fc3565b935061485581856020860161509d565b61485e8161525b565b840191505092915050565b600061487482614f7c565b61487e8185614fe5565b935061488e81856020860161509d565b80840191505092915050565b60006148a7602683614fd4565b91506148b28261526c565b604082019050919050565b60006148ca602e83614fd4565b91506148d5826152bb565b604082019050919050565b60006148ed602b83614fd4565b91506148f88261530a565b604082019050919050565b6000614910603583614fd4565b915061491b82615359565b604082019050919050565b6000614933603483614fd4565b915061493e826153a8565b604082019050919050565b6000614956601d83614fd4565b9150614961826153f7565b602082019050919050565b6000614979601e83614fd4565b915061498482615420565b602082019050919050565b6000610160830160008301516149a86000860182614c7f565b50602083015184820360208601526149c08282614830565b915050604083015184820360408601526149da8282614830565b915050606083015184820360608601526149f48282614830565b91505060808301518482036080860152614a0e8282614830565b91505060a083015184820360a0860152614a288282614830565b91505060c083015184820360c0860152614a428282614830565b91505060e0830151614a5760e0860182614719565b50610100830151614a6c610100860182614821565b50610120830151614a81610120860182614821565b50610140830151614a96610140860182614c7f565b508091505092915050565b600061016083016000830151614aba6000860182614c7f565b5060208301518482036020860152614ad28282614830565b91505060408301518482036040860152614aec8282614830565b91505060608301518482036060860152614b068282614830565b91505060808301518482036080860152614b208282614830565b91505060a083015184820360a0860152614b3a8282614830565b91505060c083015184820360c0860152614b548282614830565b91505060e0830151614b6960e0860182614719565b50610100830151614b7e610100860182614821565b50610120830151614b93610120860182614821565b50610140830151614ba8610140860182614c7f565b508091505092915050565b600061012083016000830151614bcc6000860182614c7f565b5060208301518482036020860152614be48282614830565b91505060408301518482036040860152614bfe8282614830565b9150506060830151614c136060860182614c7f565b506080830151614c266080860182614c7f565b5060a0830151614c3960a0860182614719565b5060c0830151614c4c60c0860182614821565b5060e0830151614c5f60e0860182614719565b50610100830151614c74610100860182614c7f565b508091505092915050565b614c8881615084565b82525050565b614c9781615084565b82525050565b6000614ca98284614869565b915081905092915050565b6000602082019050614cc96000830184614728565b92915050565b60006020820190508181036000830152614ce98184614737565b905092915050565b60006020820190508181036000830152614d0b81846147ac565b905092915050565b60006020820190508181036000830152614d2c8161489a565b9050919050565b60006020820190508181036000830152614d4c816148bd565b9050919050565b60006020820190508181036000830152614d6c816148e0565b9050919050565b60006020820190508181036000830152614d8c81614903565b9050919050565b60006020820190508181036000830152614dac81614926565b9050919050565b60006020820190508181036000830152614dcc81614949565b9050919050565b60006020820190508181036000830152614dec8161496c565b9050919050565b60006040820190508181036000830152614e0d8185614aa1565b90508181036020830152614e2181846147ac565b90509392505050565b60006080820190508181036000830152614e448187614aa1565b90508181036020830152614e5881866147ac565b9050614e676040830185614c8e565b614e746060830184614c8e565b95945050505050565b6000602082019050614e926000830184614c8e565b92915050565b6000614ea2614eb3565b9050614eae8282615102565b919050565b6000604051905090565b600067ffffffffffffffff821115614ed857614ed7615209565b5b602082029050602081019050919050565b600067ffffffffffffffff821115614f0457614f03615209565b5b602082029050602081019050919050565b600067ffffffffffffffff821115614f3057614f2f615209565b5b614f398261525b565b9050602081019050919050565b6000819050602082019050919050565b6000819050602082019050919050565b600081519050919050565b600081519050919050565b600081519050919050565b6000602082019050919050565b6000602082019050919050565b600082825260208201905092915050565b600082825260208201905092915050565b600082825260208201905092915050565b600082825260208201905092915050565b600081905092915050565b6000614ffb82615084565b915061500683615084565b9250827fffffffffffffffffffffffffffffffffffffffffffffffffffffffffffffffff0382111561503b5761503a61517c565b5b828201905092915050565b600061505182615064565b9050919050565b60008115159050919050565b600073ffffffffffffffffffffffffffffffffffffffff82169050919050565b6000819050919050565b82818337600083830152505050565b60005b838110156150bb5780820151818401526020810190506150a0565b838111156150ca576000848401525b50505050565b600060028204905060018216806150e857607f821691505b602082108114156150fc576150fb6151ab565b5b50919050565b61510b8261525b565b810181811067ffffffffffffffff8211171561512a57615129615209565b5b80604052505050565b600061513e82615084565b91507fffffffffffffffffffffffffffffffffffffffffffffffffffffffffffffffff8214156151715761517061517c565b5b600182019050919050565b7f4e487b7100000000000000000000000000000000000000000000000000000000600052601160045260246000fd5b7f4e487b7100000000000000000000000000000000000000000000000000000000600052602260045260246000fd5b7f4e487b7100000000000000000000000000000000000000000000000000000000600052603260045260246000fd5b7f4e487b7100000000000000000000000000000000000000000000000000000000600052604160045260246000fd5b600080fd5b600080fd5b600080fd5b600080fd5b600080fd5b600080fd5b600080fd5b6000601f19601f8301169050919050565b7f4f6e6c79206f776e65722063616e20706572666f726d2074686973206f70657260008201527f6174696f6e2e0000000000000000000000000000000000000000000000000000602082015250565b7f526573756d6520697320657870697265642e20526571756573742061206e657760008201527f20617574686f72697a6174696f6e000000000000000000000000000000000000602082015250565b7f596f7520617265206e6f7420617574686f72697a656420746f2076696577207460008201527f68697320726573756d652e000000000000000000000000000000000000000000602082015250565b7f526563727569746572206973206e6f7420617574686f72697a656420746f207060008201527f6572666f726d2074686973206f7065726174696f6e0000000000000000000000602082015250565b7f5665726966696572206973206e6f7420617574686f72697a656420746f20706560008201527f72666f726d2074686973206f7065726174696f6e000000000000000000000000602082015250565b7f43616e64696461746520616c7265616479207265676973746572656421000000600082015250565b7f43616e646964617465206d757374207265676973746572206669727374210000600082015250565b61545281615046565b811461545d57600080fd5b50565b61546981615058565b811461547457600080fd5b50565b61548081615084565b811461548b57600080fd5b5056fea26469706673582212204772b5a737c23e47934d5acc75dc02d32106c85b4563927c9505af126f6c7b7c64736f6c63430008070033",
  "immutableReferences": {},
  "source": "// SPDX-License-Identifier: MIT\r\npragma solidity ^0.8.7;\r\n\r\nimport \"./RecruitersVerifiersContract.sol\";\r\n\r\ncontract CandidateContract {\r\n    address owner;\r\n    uint registeredCandidatesCount;\r\n    uint viewResumeTime;\r\n    RecruitersVerifiersContract recruitersVerifiersContract;\r\n\r\n    /**\r\n     * @dev Set contract deployer as owner\r\n     */\r\n    constructor(RecruitersVerifiersContract _recruitersVerifiersContract) {\r\n        owner = msg.sender;\r\n        registeredCandidatesCount = 0;\r\n        viewResumeTime = 120; //Default time in secs to view a resume\r\n        recruitersVerifiersContract = _recruitersVerifiersContract;\r\n    }\r\n\r\n    function getOwner() public view returns(address) {\r\n        return owner;\r\n    }\r\n\r\n    // Only owner can access\r\n    modifier onlyOwner() {\r\n        require(msg.sender == owner, \"Only owner can perform this operation.\");\r\n        _;\r\n    }\r\n\r\n    // Only unregistered candidates\r\n    modifier onlyUnregisteredCandidates() {\r\n        require (candidateDetails[msg.sender].isRegistered == false, \"Candidate already registered!\");\r\n        _;\r\n    }\r\n\r\n    // Only registered candidates\r\n    modifier onlyRegisteredCandidates() {\r\n        require (candidateDetails[msg.sender].isRegistered == true, \"Candidate must register first!\");\r\n        _;\r\n    }\r\n\r\n    // Only authorized verifiers\r\n    modifier onlyAuthorizedVerifiers(address _verifierAddress){\r\n        require(isAuthorizedVerifier(_verifierAddress), \"Verifier is not authorized to perform this operation\");\r\n        _;\r\n    }\r\n\r\n    // Only authorized recruiters\r\n    modifier onlyAuthorizedRecruiters(address _recruiterAddress){\r\n        require(isAuthorizedRecruiter(_recruiterAddress), \"Recruiter is not authorized to perform this operation\");\r\n        _;\r\n    }\r\n\r\n    //Struct for files of the candidate\r\n    struct Experience {\r\n        uint id;\r\n        string hash;\r\n        string title;\r\n        uint experienceType; //Experience type: 1)academic or 2)professional\r\n        uint candidateId;\r\n        address author;\r\n        bool isVerified;\r\n        address verifiableBy;\r\n        uint verificationDate;\r\n    }\r\n    mapping(address => mapping(uint => Experience)) experiencesByCandidate;\r\n    \r\n    //A candidate registered or not registered\r\n    struct Candidate{\r\n        uint id;\r\n        string dni;\r\n        string name;\r\n        string lastName;\r\n        string secondLastName;\r\n        string postalAddress;\r\n        string emailAddress;\r\n        address candidateAddress;\r\n        bool isRegistered;\r\n        bool isVerified;\r\n        uint experienceCount;\r\n    }\r\n    //Address list of registered candidates\r\n    address[] registeredCandidates;\r\n    mapping(address => Candidate) candidateDetails;\r\n\r\n    mapping(address => mapping (address => uint)) public candidateRecruiterTmpAuth;\r\n    mapping(address => mapping (address => bool)) candidateVerifierPending;\r\n    mapping(address => address[]) verifiableCandidatesHistoryByVerifier;\r\n\r\n    //Events\r\n    event ExperiencesAdded(Experience[] experiences);\r\n    \r\n    // Everybody can register themselves as candidates, only allowed to unregistered candidates\r\n    function registerCandidate(string memory _dni, string memory _name, string memory _lastName, \r\n    string memory _secondLastName, string memory _postalAddress, string memory _emailAddress) \r\n    public onlyUnregisteredCandidates{\r\n        Candidate memory candidate = Candidate({\r\n            id: registeredCandidatesCount,\r\n            dni: _dni,\r\n            name: _name,\r\n            lastName: _lastName,\r\n            secondLastName: _secondLastName,\r\n            postalAddress: _postalAddress,\r\n            emailAddress: _emailAddress,\r\n            candidateAddress: msg.sender,\r\n            isRegistered: true,\r\n            isVerified: false,\r\n            experienceCount: 0\r\n        });\r\n        candidateDetails[msg.sender] = candidate;\r\n        registeredCandidates.push(msg.sender);\r\n        registeredCandidatesCount++;\r\n    }\r\n\r\n    // Function to authorize recruiters to consult candidates resumes, only allowed to registeredCandidates\r\n    function authorizeRecruiter(address[] memory _recruiterAddresses) public onlyRegisteredCandidates{\r\n        for (uint i = 0; i < _recruiterAddresses.length; i++) {\r\n            candidateRecruiterTmpAuth[msg.sender][_recruiterAddresses[i]] = block.timestamp + viewResumeTime;\r\n        }\r\n    }\r\n\r\n    //Function to get a list of all registered candidates, only for testing purposes (owner)\r\n    function getRegisteredCandidates() public view onlyOwner returns (Candidate[] memory){\r\n        Candidate[] memory candidates = new Candidate[](registeredCandidatesCount);\r\n        for (uint i = 0; i < registeredCandidatesCount; i++) {\r\n            Candidate storage candidate = candidateDetails[registeredCandidates[i]];\r\n            candidates[i] = candidate;\r\n        }\r\n         return candidates;\r\n    }\r\n\r\n    //Function to get a candidate, only for recruiters authorized temporarily\r\n    function getCandidateRecruiter(address _candidateAddress, uint _currentTime) public view onlyAuthorizedRecruiters(msg.sender) returns (Candidate memory, Experience[] memory, uint, uint){\r\n        require (candidateRecruiterTmpAuth[_candidateAddress][msg.sender] > 0, \"You are not authorized to view this resume.\");\r\n        require (candidateRecruiterTmpAuth[_candidateAddress][msg.sender] >= _currentTime, \"Resume is expired. Request a new authorization\");\r\n        Candidate memory candidate = candidateDetails[_candidateAddress];\r\n        Experience[] memory experiences = getAllExperiencesByCandidate(_candidateAddress);\r\n        return (candidate, experiences, candidateRecruiterTmpAuth[_candidateAddress][msg.sender], _currentTime);\r\n    }\r\n\r\n    //Function to get my resume, only for registered candidates\r\n    function getCandidate() public view onlyRegisteredCandidates returns (Candidate memory, Experience[] memory){\r\n        Candidate memory candidate = candidateDetails[msg.sender];\r\n        Experience[] memory experiences = getAllExperiencesByCandidate(msg.sender);\r\n        return (candidate, experiences);\r\n    }\r\n\r\n    // get total number of candidates registered, public\r\n    function getRegisteredCandidateCount() public view returns (uint) {\r\n        return registeredCandidatesCount;\r\n    }\r\n\r\n    // get total experiences by candidate, only allowed to registered candidates\r\n    function getExperienceCountByCandidate(address _address) public view onlyRegisteredCandidates returns (uint) {\r\n        return candidateDetails[_address].experienceCount;\r\n    }\r\n\r\n    // Upload multiple experiences, only allowed to registered candidates\r\n    function addExperiences(Experience[] memory experiences) public onlyRegisteredCandidates{\r\n        for (uint i = 0; i < experiences.length; i++) {\r\n            Experience memory experience = Experience({\r\n                id: candidateDetails[msg.sender].experienceCount,\r\n                hash: experiences[i].hash,\r\n                title: experiences[i].title,\r\n                experienceType: experiences[i].experienceType,\r\n                candidateId: candidateDetails[msg.sender].id,\r\n                author: msg.sender,\r\n                isVerified: false,\r\n                verifiableBy: experiences[i].verifiableBy,\r\n                verificationDate: 0\r\n            });\r\n            experiencesByCandidate[msg.sender][candidateDetails[msg.sender].experienceCount] = experience;\r\n            candidateDetails[msg.sender].experienceCount++;\r\n\r\n            candidateDetails[msg.sender].isVerified = false;\r\n            candidateVerifierPending[msg.sender][experiences[i].verifiableBy] = true;\r\n            bool isCandidateVerifierAlreadyInList = false;\r\n            for (uint j = 0; j < verifiableCandidatesHistoryByVerifier[experiences[i].verifiableBy].length; j++){\r\n                if (verifiableCandidatesHistoryByVerifier[experiences[i].verifiableBy][j] == msg.sender)\r\n                    isCandidateVerifierAlreadyInList = true;\r\n            }\r\n            if (!isCandidateVerifierAlreadyInList)\r\n                verifiableCandidatesHistoryByVerifier[experiences[i].verifiableBy].push(msg.sender);\r\n            \r\n        }\r\n \r\n        emit ExperiencesAdded(experiences);\r\n    }\r\n\r\n    //Function to get a list of all experiences added by a candidate address, only allowed to self registered candidates and recruiters\r\n    function getAllExperiencesByCandidate(address _candidateAddress) private view returns (Experience[] memory){\r\n        Experience[] memory experiences = new Experience[](candidateDetails[_candidateAddress].experienceCount);\r\n        for (uint i = 0; i < candidateDetails[_candidateAddress].experienceCount; i++) {\r\n            Experience storage experience = experiencesByCandidate[_candidateAddress][i];\r\n            experiences[i] = experience;\r\n        }\r\n         return experiences;\r\n    }\r\n\r\n    //Function to get a list of all verifiable experiences of a candidate address, only allowed to authorized verifiers\r\n    function getUnverifiedExperiencesByCandidate(address _candidateAddress) public view onlyAuthorizedVerifiers(msg.sender)\r\n    returns (Experience[] memory){\r\n        uint unverifiedExperiencesCount = 0;\r\n        for (uint i = 0; i < candidateDetails[_candidateAddress].experienceCount; i++) {\r\n            if(!experiencesByCandidate[_candidateAddress][i].isVerified && \r\n            experiencesByCandidate[_candidateAddress][i].verifiableBy == msg.sender)\r\n                unverifiedExperiencesCount++;\r\n        }\r\n        Experience[] memory experiences = new Experience[](unverifiedExperiencesCount);\r\n        uint j = 0;\r\n        for (uint i = 0; i < candidateDetails[_candidateAddress].experienceCount; i++) {\r\n            if(!experiencesByCandidate[_candidateAddress][i].isVerified && \r\n            experiencesByCandidate[_candidateAddress][i].verifiableBy == msg.sender && j < unverifiedExperiencesCount){\r\n                Experience storage experience = experiencesByCandidate[_candidateAddress][i];\r\n                experiences[j] = experience;\r\n                j++;\r\n            }\r\n        }\r\n        return experiences;\r\n    }\r\n\r\n    //Function to get candidates that have not been verified, only for authorized verifiers\r\n    function getVerifiableCandidates() public view onlyAuthorizedVerifiers(msg.sender) returns (Candidate[] memory) {\r\n        uint verifiableCandidatesHistoryCount = 0;\r\n        for (uint i = 0; i < verifiableCandidatesHistoryByVerifier[msg.sender].length; i++) {\r\n            if (candidateVerifierPending[verifiableCandidatesHistoryByVerifier[msg.sender][i]][msg.sender])\r\n                verifiableCandidatesHistoryCount++;\r\n        }\r\n        Candidate[] memory candidates = new Candidate[](verifiableCandidatesHistoryCount);\r\n        for (uint i = 0; i < verifiableCandidatesHistoryByVerifier[msg.sender].length; i++) {\r\n            if (candidateVerifierPending[verifiableCandidatesHistoryByVerifier[msg.sender][i]][msg.sender]){\r\n                Candidate storage candidate = candidateDetails[registeredCandidates[i]];\r\n                candidates[i] = candidate;\r\n            }\r\n        }\r\n        return (candidates);\r\n    }\r\n\r\n    //Function to verify experiences of a candidate, only allowed to authorized verifiers\r\n    function verifyExperiences(Experience[] memory experiences, address _candidateAddress) public onlyAuthorizedVerifiers(msg.sender){\r\n        bool isVerifiedCandidate = true;\r\n        bool isCandidateVerifierNotPending = true;\r\n        for (uint i = 0; i < candidateDetails[_candidateAddress].experienceCount; i++) {\r\n            for (uint j = 0; j < experiences.length; j++) {\r\n                if (compareStrings(experiencesByCandidate[_candidateAddress][i].hash, experiences[j].hash)){\r\n                    experiencesByCandidate[_candidateAddress][i].isVerified = true;\r\n                    experiencesByCandidate[_candidateAddress][i].verificationDate = block.timestamp;\r\n                }\r\n            }\r\n            isVerifiedCandidate = isVerifiedCandidate && experiencesByCandidate[_candidateAddress][i].isVerified;\r\n            candidateDetails[_candidateAddress].isVerified = isVerifiedCandidate;\r\n        }\r\n        for (uint i = 0; i < candidateDetails[_candidateAddress].experienceCount; i++) {\r\n            if (experiencesByCandidate[_candidateAddress][i].verifiableBy == msg.sender){\r\n                isCandidateVerifierNotPending = isCandidateVerifierNotPending && experiencesByCandidate[_candidateAddress][i].isVerified;\r\n            }\r\n        }\r\n        candidateVerifierPending[_candidateAddress][msg.sender] = !isCandidateVerifierNotPending;\r\n    }\r\n\r\n    function getViewResumeTime() public returns (uint){\r\n        return viewResumeTime;\r\n    }\r\n\r\n    function setViewResumeTime(uint _viewResumeTime) public onlyOwner{\r\n        viewResumeTime = _viewResumeTime;\r\n    }\r\n\r\n    function compareStrings (string memory a, string memory b) private pure returns (bool) {\r\n        return (keccak256(abi.encodePacked((a))) == keccak256(abi.encodePacked((b))));\r\n    }\r\n\r\n    function isAuthorizedRecruiter(address _recruiterAddress) private view returns (bool){\r\n        return recruitersVerifiersContract.isAuthorizedRecruiter(_recruiterAddress);\r\n    }\r\n\r\n    function isAuthorizedVerifier(address _verifierAddress) private view returns (bool){\r\n        return recruitersVerifiersContract.isAuthorizedVerifier(_verifierAddress);\r\n    }\r\n\r\n    function getAuthorizedVerifierCount() public view returns (uint){\r\n        return recruitersVerifiersContract.getAuthorizedVerifierCount();\r\n    }\r\n\r\n    function getAuthorizedRecruiterCount() public view returns (uint){\r\n        return recruitersVerifiersContract.getAuthorizedRecruiterCount();\r\n    }\r\n\r\n    function getUserRole() public view returns (uint) {\r\n        uint userRole = 0;\r\n        if (candidateDetails[msg.sender].isRegistered == true)\r\n            userRole = 1;\r\n        else if(isAuthorizedRecruiter(msg.sender))\r\n            userRole = 2;\r\n        else if(isAuthorizedVerifier(msg.sender))\r\n            userRole = 3;\r\n        else if(msg.sender == owner)\r\n            userRole = 5;\r\n        return userRole;\r\n    }\r\n}",
  "sourcePath": "C:\\Users\\Irasema Rivera\\OneDrive\\USAL\\TFM\\CVChain\\contracts\\CandidateContract.sol",
  "compiler": {
    "name": "solc",
    "version": "0.8.7+commit.e28d00a7.Emscripten.clang"
  },
  "schemaVersion": "3.4.7",
  "updatedAt": "2022-07-06T18:31:13.887Z",
  "networkType": "ethereum",
  "devdoc": {
    "kind": "dev",
    "methods": {
      "constructor": {
        "details": "Set contract deployer as owner"
      }
    },
    "version": 1
  },
  "userdoc": {
    "kind": "user",
    "methods": {},
    "version": 1
  }
}