{
  "contractName": "CandidateContract",
  "abi": [
    {
      "inputs": [
        {
          "internalType": "contract RecruitersVerifiersContract",
          "name": "_recruitersVerifiersContract",
          "type": "address"
        }
      ],
      "stateMutability": "nonpayable",
      "type": "constructor"
    },
    {
      "anonymous": false,
      "inputs": [
        {
          "components": [
            {
              "internalType": "uint256",
              "name": "id",
              "type": "uint256"
            },
            {
              "internalType": "string",
              "name": "hash",
              "type": "string"
            },
            {
              "internalType": "string",
              "name": "title",
              "type": "string"
            },
            {
              "internalType": "uint256",
              "name": "experienceType",
              "type": "uint256"
            },
            {
              "internalType": "uint256",
              "name": "candidateId",
              "type": "uint256"
            },
            {
              "internalType": "address",
              "name": "author",
              "type": "address"
            },
            {
              "internalType": "bool",
              "name": "isVerified",
              "type": "bool"
            },
            {
              "internalType": "address",
              "name": "verifiableBy",
              "type": "address"
            },
            {
              "internalType": "uint256",
              "name": "verificationDate",
              "type": "uint256"
            }
          ],
          "indexed": false,
          "internalType": "struct CandidateContract.Experience[]",
          "name": "experiences",
          "type": "tuple[]"
        }
      ],
      "name": "ExperiencesAdded",
      "type": "event"
    },
    {
      "inputs": [],
      "name": "getOwner",
      "outputs": [
        {
          "internalType": "address",
          "name": "",
          "type": "address"
        }
      ],
      "stateMutability": "view",
      "type": "function",
      "constant": true
    },
    {
      "inputs": [
        {
          "internalType": "string",
          "name": "_dni",
          "type": "string"
        },
        {
          "internalType": "string",
          "name": "_name",
          "type": "string"
        },
        {
          "internalType": "string",
          "name": "_lastName",
          "type": "string"
        },
        {
          "internalType": "string",
          "name": "_secondLastName",
          "type": "string"
        },
        {
          "internalType": "string",
          "name": "_postalAddress",
          "type": "string"
        },
        {
          "internalType": "string",
          "name": "_emailAddress",
          "type": "string"
        }
      ],
      "name": "registerCandidate",
      "outputs": [],
      "stateMutability": "nonpayable",
      "type": "function"
    },
    {
      "inputs": [
        {
          "internalType": "address[]",
          "name": "_recruiterAddresses",
          "type": "address[]"
        }
      ],
      "name": "authorizeRecruiter",
      "outputs": [],
      "stateMutability": "nonpayable",
      "type": "function"
    },
    {
      "inputs": [],
      "name": "getRegisteredCandidates",
      "outputs": [
        {
          "components": [
            {
              "internalType": "uint256",
              "name": "id",
              "type": "uint256"
            },
            {
              "internalType": "string",
              "name": "dni",
              "type": "string"
            },
            {
              "internalType": "string",
              "name": "name",
              "type": "string"
            },
            {
              "internalType": "string",
              "name": "lastName",
              "type": "string"
            },
            {
              "internalType": "string",
              "name": "secondLastName",
              "type": "string"
            },
            {
              "internalType": "string",
              "name": "postalAddress",
              "type": "string"
            },
            {
              "internalType": "string",
              "name": "emailAddress",
              "type": "string"
            },
            {
              "internalType": "address",
              "name": "candidateAddress",
              "type": "address"
            },
            {
              "internalType": "bool",
              "name": "isRegistered",
              "type": "bool"
            },
            {
              "internalType": "bool",
              "name": "isVerified",
              "type": "bool"
            },
            {
              "internalType": "uint256",
              "name": "experienceCount",
              "type": "uint256"
            }
          ],
          "internalType": "struct CandidateContract.Candidate[]",
          "name": "",
          "type": "tuple[]"
        }
      ],
      "stateMutability": "view",
      "type": "function",
      "constant": true
    },
    {
      "inputs": [
        {
          "internalType": "address",
          "name": "_candidateAddress",
          "type": "address"
        },
        {
          "internalType": "uint256",
          "name": "_currentTime",
          "type": "uint256"
        }
      ],
      "name": "getCandidateRecruiter",
      "outputs": [
        {
          "components": [
            {
              "internalType": "uint256",
              "name": "id",
              "type": "uint256"
            },
            {
              "internalType": "string",
              "name": "dni",
              "type": "string"
            },
            {
              "internalType": "string",
              "name": "name",
              "type": "string"
            },
            {
              "internalType": "string",
              "name": "lastName",
              "type": "string"
            },
            {
              "internalType": "string",
              "name": "secondLastName",
              "type": "string"
            },
            {
              "internalType": "string",
              "name": "postalAddress",
              "type": "string"
            },
            {
              "internalType": "string",
              "name": "emailAddress",
              "type": "string"
            },
            {
              "internalType": "address",
              "name": "candidateAddress",
              "type": "address"
            },
            {
              "internalType": "bool",
              "name": "isRegistered",
              "type": "bool"
            },
            {
              "internalType": "bool",
              "name": "isVerified",
              "type": "bool"
            },
            {
              "internalType": "uint256",
              "name": "experienceCount",
              "type": "uint256"
            }
          ],
          "internalType": "struct CandidateContract.Candidate",
          "name": "",
          "type": "tuple"
        },
        {
          "components": [
            {
              "internalType": "uint256",
              "name": "id",
              "type": "uint256"
            },
            {
              "internalType": "string",
              "name": "hash",
              "type": "string"
            },
            {
              "internalType": "string",
              "name": "title",
              "type": "string"
            },
            {
              "internalType": "uint256",
              "name": "experienceType",
              "type": "uint256"
            },
            {
              "internalType": "uint256",
              "name": "candidateId",
              "type": "uint256"
            },
            {
              "internalType": "address",
              "name": "author",
              "type": "address"
            },
            {
              "internalType": "bool",
              "name": "isVerified",
              "type": "bool"
            },
            {
              "internalType": "address",
              "name": "verifiableBy",
              "type": "address"
            },
            {
              "internalType": "uint256",
              "name": "verificationDate",
              "type": "uint256"
            }
          ],
          "internalType": "struct CandidateContract.Experience[]",
          "name": "",
          "type": "tuple[]"
        },
        {
          "internalType": "uint256",
          "name": "",
          "type": "uint256"
        },
        {
          "internalType": "uint256",
          "name": "",
          "type": "uint256"
        }
      ],
      "stateMutability": "view",
      "type": "function",
      "constant": true
    },
    {
      "inputs": [],
      "name": "getCandidate",
      "outputs": [
        {
          "components": [
            {
              "internalType": "uint256",
              "name": "id",
              "type": "uint256"
            },
            {
              "internalType": "string",
              "name": "dni",
              "type": "string"
            },
            {
              "internalType": "string",
              "name": "name",
              "type": "string"
            },
            {
              "internalType": "string",
              "name": "lastName",
              "type": "string"
            },
            {
              "internalType": "string",
              "name": "secondLastName",
              "type": "string"
            },
            {
              "internalType": "string",
              "name": "postalAddress",
              "type": "string"
            },
            {
              "internalType": "string",
              "name": "emailAddress",
              "type": "string"
            },
            {
              "internalType": "address",
              "name": "candidateAddress",
              "type": "address"
            },
            {
              "internalType": "bool",
              "name": "isRegistered",
              "type": "bool"
            },
            {
              "internalType": "bool",
              "name": "isVerified",
              "type": "bool"
            },
            {
              "internalType": "uint256",
              "name": "experienceCount",
              "type": "uint256"
            }
          ],
          "internalType": "struct CandidateContract.Candidate",
          "name": "",
          "type": "tuple"
        },
        {
          "components": [
            {
              "internalType": "uint256",
              "name": "id",
              "type": "uint256"
            },
            {
              "internalType": "string",
              "name": "hash",
              "type": "string"
            },
            {
              "internalType": "string",
              "name": "title",
              "type": "string"
            },
            {
              "internalType": "uint256",
              "name": "experienceType",
              "type": "uint256"
            },
            {
              "internalType": "uint256",
              "name": "candidateId",
              "type": "uint256"
            },
            {
              "internalType": "address",
              "name": "author",
              "type": "address"
            },
            {
              "internalType": "bool",
              "name": "isVerified",
              "type": "bool"
            },
            {
              "internalType": "address",
              "name": "verifiableBy",
              "type": "address"
            },
            {
              "internalType": "uint256",
              "name": "verificationDate",
              "type": "uint256"
            }
          ],
          "internalType": "struct CandidateContract.Experience[]",
          "name": "",
          "type": "tuple[]"
        }
      ],
      "stateMutability": "view",
      "type": "function",
      "constant": true
    },
    {
      "inputs": [],
      "name": "getRegisteredCandidateCount",
      "outputs": [
        {
          "internalType": "uint256",
          "name": "",
          "type": "uint256"
        }
      ],
      "stateMutability": "view",
      "type": "function",
      "constant": true
    },
    {
      "inputs": [
        {
          "internalType": "address",
          "name": "_address",
          "type": "address"
        }
      ],
      "name": "getExperienceCountByCandidate",
      "outputs": [
        {
          "internalType": "uint256",
          "name": "",
          "type": "uint256"
        }
      ],
      "stateMutability": "view",
      "type": "function",
      "constant": true
    },
    {
      "inputs": [
        {
          "components": [
            {
              "internalType": "uint256",
              "name": "id",
              "type": "uint256"
            },
            {
              "internalType": "string",
              "name": "hash",
              "type": "string"
            },
            {
              "internalType": "string",
              "name": "title",
              "type": "string"
            },
            {
              "internalType": "uint256",
              "name": "experienceType",
              "type": "uint256"
            },
            {
              "internalType": "uint256",
              "name": "candidateId",
              "type": "uint256"
            },
            {
              "internalType": "address",
              "name": "author",
              "type": "address"
            },
            {
              "internalType": "bool",
              "name": "isVerified",
              "type": "bool"
            },
            {
              "internalType": "address",
              "name": "verifiableBy",
              "type": "address"
            },
            {
              "internalType": "uint256",
              "name": "verificationDate",
              "type": "uint256"
            }
          ],
          "internalType": "struct CandidateContract.Experience[]",
          "name": "experiences",
          "type": "tuple[]"
        }
      ],
      "name": "addExperiences",
      "outputs": [],
      "stateMutability": "nonpayable",
      "type": "function"
    },
    {
      "inputs": [
        {
          "internalType": "address",
          "name": "_candidateAddress",
          "type": "address"
        }
      ],
      "name": "getUnverifiedExperiencesByCandidate",
      "outputs": [
        {
          "components": [
            {
              "internalType": "uint256",
              "name": "id",
              "type": "uint256"
            },
            {
              "internalType": "string",
              "name": "hash",
              "type": "string"
            },
            {
              "internalType": "string",
              "name": "title",
              "type": "string"
            },
            {
              "internalType": "uint256",
              "name": "experienceType",
              "type": "uint256"
            },
            {
              "internalType": "uint256",
              "name": "candidateId",
              "type": "uint256"
            },
            {
              "internalType": "address",
              "name": "author",
              "type": "address"
            },
            {
              "internalType": "bool",
              "name": "isVerified",
              "type": "bool"
            },
            {
              "internalType": "address",
              "name": "verifiableBy",
              "type": "address"
            },
            {
              "internalType": "uint256",
              "name": "verificationDate",
              "type": "uint256"
            }
          ],
          "internalType": "struct CandidateContract.Experience[]",
          "name": "",
          "type": "tuple[]"
        }
      ],
      "stateMutability": "view",
      "type": "function",
      "constant": true
    },
    {
      "inputs": [],
      "name": "getVerifiableCandidates",
      "outputs": [
        {
          "components": [
            {
              "internalType": "uint256",
              "name": "id",
              "type": "uint256"
            },
            {
              "internalType": "string",
              "name": "dni",
              "type": "string"
            },
            {
              "internalType": "string",
              "name": "name",
              "type": "string"
            },
            {
              "internalType": "string",
              "name": "lastName",
              "type": "string"
            },
            {
              "internalType": "string",
              "name": "secondLastName",
              "type": "string"
            },
            {
              "internalType": "string",
              "name": "postalAddress",
              "type": "string"
            },
            {
              "internalType": "string",
              "name": "emailAddress",
              "type": "string"
            },
            {
              "internalType": "address",
              "name": "candidateAddress",
              "type": "address"
            },
            {
              "internalType": "bool",
              "name": "isRegistered",
              "type": "bool"
            },
            {
              "internalType": "bool",
              "name": "isVerified",
              "type": "bool"
            },
            {
              "internalType": "uint256",
              "name": "experienceCount",
              "type": "uint256"
            }
          ],
          "internalType": "struct CandidateContract.Candidate[]",
          "name": "",
          "type": "tuple[]"
        }
      ],
      "stateMutability": "view",
      "type": "function",
      "constant": true
    },
    {
      "inputs": [
        {
          "components": [
            {
              "internalType": "uint256",
              "name": "id",
              "type": "uint256"
            },
            {
              "internalType": "string",
              "name": "hash",
              "type": "string"
            },
            {
              "internalType": "string",
              "name": "title",
              "type": "string"
            },
            {
              "internalType": "uint256",
              "name": "experienceType",
              "type": "uint256"
            },
            {
              "internalType": "uint256",
              "name": "candidateId",
              "type": "uint256"
            },
            {
              "internalType": "address",
              "name": "author",
              "type": "address"
            },
            {
              "internalType": "bool",
              "name": "isVerified",
              "type": "bool"
            },
            {
              "internalType": "address",
              "name": "verifiableBy",
              "type": "address"
            },
            {
              "internalType": "uint256",
              "name": "verificationDate",
              "type": "uint256"
            }
          ],
          "internalType": "struct CandidateContract.Experience[]",
          "name": "experiences",
          "type": "tuple[]"
        },
        {
          "internalType": "address",
          "name": "_candidateAddress",
          "type": "address"
        }
      ],
      "name": "verifyExperiences",
      "outputs": [],
      "stateMutability": "nonpayable",
      "type": "function"
    },
    {
      "inputs": [],
      "name": "getViewResumeTime",
      "outputs": [
        {
          "internalType": "uint256",
          "name": "",
          "type": "uint256"
        }
      ],
      "stateMutability": "nonpayable",
      "type": "function"
    },
    {
      "inputs": [
        {
          "internalType": "uint256",
          "name": "_viewResumeTime",
          "type": "uint256"
        }
      ],
      "name": "setViewResumeTime",
      "outputs": [],
      "stateMutability": "nonpayable",
      "type": "function"
    },
    {
      "inputs": [],
      "name": "getAuthorizedVerifierCount",
      "outputs": [
        {
          "internalType": "uint256",
          "name": "",
          "type": "uint256"
        }
      ],
      "stateMutability": "view",
      "type": "function",
      "constant": true
    },
    {
      "inputs": [],
      "name": "getAuthorizedRecruiterCount",
      "outputs": [
        {
          "internalType": "uint256",
          "name": "",
          "type": "uint256"
        }
      ],
      "stateMutability": "view",
      "type": "function",
      "constant": true
    },
    {
      "inputs": [],
      "name": "getUserRole",
      "outputs": [
        {
          "internalType": "uint256",
          "name": "",
          "type": "uint256"
        }
      ],
      "stateMutability": "view",
      "type": "function",
      "constant": true
    }
  ],
  "bytecode": "0x60806040523480156200001157600080fd5b50604051620055b3380380620055b38339818101604052810190620000379190620000e6565b336000806101000a81548173ffffffffffffffffffffffffffffffffffffffff021916908373ffffffffffffffffffffffffffffffffffffffff1602179055506000600181905550607860028190555080600360006101000a81548173ffffffffffffffffffffffffffffffffffffffff021916908373ffffffffffffffffffffffffffffffffffffffff160217905550506200017f565b600081519050620000e08162000165565b92915050565b600060208284031215620000ff57620000fe62000160565b5b60006200010f84828501620000cf565b91505092915050565b6000620001258262000140565b9050919050565b6000620001398262000118565b9050919050565b600073ffffffffffffffffffffffffffffffffffffffff82169050919050565b600080fd5b62000170816200012c565b81146200017c57600080fd5b50565b615424806200018f6000396000f3fe608060405234801561001057600080fd5b506004361061010b5760003560e01c806398dcc000116100a2578063bacc8a9a11610071578063bacc8a9a146102ac578063bf04a10d146102ca578063de82edc4146102e8578063ed16d41f14610304578063f1a68302146103225761010b565b806398dcc000146102245780639fbfb84314610242578063a93e35ed14610272578063b868eadd146102905761010b565b8063507a3acc116100de578063507a3acc1461019b57806370218b85146101cb578063893d20e8146101ea5780638c0b0b86146102085761010b565b8063042ce4f8146101105780630a44367c146101435780631b0043df14610161578063396b9ae01461017d575b600080fd5b61012a60048036038101906101259190614367565b61033e565b60405161013a9493929190614d8a565b60405180910390f35b61014b610a0e565b6040516101589190614c2f565b60405180910390f35b61017b600480360381019061017691906143f0565b61125a565b005b6101856119df565b6040516101929190614c2f565b60405180910390f35b6101b560048036038101906101b0919061433a565b611faa565b6040516101c29190614c51565b60405180910390f35b6101d36125fb565b6040516101e1929190614d53565b60405180910390f35b6101f2612b0f565b6040516101ff9190614c14565b60405180910390f35b610222600480360381019061021d91906143a7565b612b38565b005b61022c612c99565b6040516102399190614ddd565b60405180910390f35b61025c6004803603810190610257919061433a565b612d40565b6040516102699190614ddd565b60405180910390f35b61027a612e22565b6040516102879190614ddd565b60405180910390f35b6102aa60048036038101906102a591906145f7565b612e2c565b005b6102b4612ec4565b6040516102c19190614ddd565b60405180910390f35b6102d2612f6b565b6040516102df9190614ddd565b60405180910390f35b61030260048036038101906102fd9190614439565b613068565b005b61030c6135e2565b6040516103199190614ddd565b60405180910390f35b61033c600480360381019061033791906144c2565b6135ec565b005b610346613e5e565b60606000803361035581613904565b610394576040517f08c379a000000000000000000000000000000000000000000000000000000000815260040161038b90614cd3565b60405180910390fd5b6000600760008973ffffffffffffffffffffffffffffffffffffffff1673ffffffffffffffffffffffffffffffffffffffff16815260200190815260200160002060003373ffffffffffffffffffffffffffffffffffffffff1673ffffffffffffffffffffffffffffffffffffffff1681526020019081526020016000205411610453576040517f08c379a000000000000000000000000000000000000000000000000000000000815260040161044a90614cb3565b60405180910390fd5b85600760008973ffffffffffffffffffffffffffffffffffffffff1673ffffffffffffffffffffffffffffffffffffffff16815260200190815260200160002060003373ffffffffffffffffffffffffffffffffffffffff1673ffffffffffffffffffffffffffffffffffffffff168152602001908152602001600020541015610512576040517f08c379a000000000000000000000000000000000000000000000000000000000815260040161050990614c93565b60405180910390fd5b6000600660008973ffffffffffffffffffffffffffffffffffffffff1673ffffffffffffffffffffffffffffffffffffffff168152602001908152602001600020604051806101600160405290816000820154815260200160018201805461057990615030565b80601f01602080910402602001604051908101604052809291908181526020018280546105a590615030565b80156105f25780601f106105c7576101008083540402835291602001916105f2565b820191906000526020600020905b8154815290600101906020018083116105d557829003601f168201915b5050505050815260200160028201805461060b90615030565b80601f016020809104026020016040519081016040528092919081815260200182805461063790615030565b80156106845780601f1061065957610100808354040283529160200191610684565b820191906000526020600020905b81548152906001019060200180831161066757829003601f168201915b5050505050815260200160038201805461069d90615030565b80601f01602080910402602001604051908101604052809291908181526020018280546106c990615030565b80156107165780601f106106eb57610100808354040283529160200191610716565b820191906000526020600020905b8154815290600101906020018083116106f957829003601f168201915b5050505050815260200160048201805461072f90615030565b80601f016020809104026020016040519081016040528092919081815260200182805461075b90615030565b80156107a85780601f1061077d576101008083540402835291602001916107a8565b820191906000526020600020905b81548152906001019060200180831161078b57829003601f168201915b505050505081526020016005820180546107c190615030565b80601f01602080910402602001604051908101604052809291908181526020018280546107ed90615030565b801561083a5780601f1061080f5761010080835404028352916020019161083a565b820191906000526020600020905b81548152906001019060200180831161081d57829003601f168201915b5050505050815260200160068201805461085390615030565b80601f016020809104026020016040519081016040528092919081815260200182805461087f90615030565b80156108cc5780601f106108a1576101008083540402835291602001916108cc565b820191906000526020600020905b8154815290600101906020018083116108af57829003601f168201915b505050505081526020016007820160009054906101000a900473ffffffffffffffffffffffffffffffffffffffff1673ffffffffffffffffffffffffffffffffffffffff1673ffffffffffffffffffffffffffffffffffffffff1681526020016007820160149054906101000a900460ff161515151581526020016007820160159054906101000a900460ff1615151515815260200160088201548152505090506000610978896139b8565b90508181600760008c73ffffffffffffffffffffffffffffffffffffffff1673ffffffffffffffffffffffffffffffffffffffff16815260200190815260200160002060003373ffffffffffffffffffffffffffffffffffffffff1673ffffffffffffffffffffffffffffffffffffffff168152602001908152602001600020548a965096509650965050505092959194509250565b606033610a1a81613d51565b610a59576040517f08c379a0000000000000000000000000000000000000000000000000000000008152600401610a5090614cf3565b60405180910390fd5b6000805b600960003373ffffffffffffffffffffffffffffffffffffffff1673ffffffffffffffffffffffffffffffffffffffff16815260200190815260200160002080549050811015610bd35760086000600960003373ffffffffffffffffffffffffffffffffffffffff1673ffffffffffffffffffffffffffffffffffffffff1681526020019081526020016000208381548110610afc57610afb61513a565b5b9060005260206000200160009054906101000a900473ffffffffffffffffffffffffffffffffffffffff1673ffffffffffffffffffffffffffffffffffffffff1673ffffffffffffffffffffffffffffffffffffffff16815260200190815260200160002060003373ffffffffffffffffffffffffffffffffffffffff1673ffffffffffffffffffffffffffffffffffffffff16815260200190815260200160002060009054906101000a900460ff1615610bc0578180610bbc90615093565b9250505b8080610bcb90615093565b915050610a5d565b5060008167ffffffffffffffff811115610bf057610bef615169565b5b604051908082528060200260200182016040528015610c2957816020015b610c16613e5e565b815260200190600190039081610c0e5790505b50905060005b600960003373ffffffffffffffffffffffffffffffffffffffff1673ffffffffffffffffffffffffffffffffffffffff168152602001908152602001600020805490508110156112505760086000600960003373ffffffffffffffffffffffffffffffffffffffff1673ffffffffffffffffffffffffffffffffffffffff1681526020019081526020016000208381548110610cce57610ccd61513a565b5b9060005260206000200160009054906101000a900473ffffffffffffffffffffffffffffffffffffffff1673ffffffffffffffffffffffffffffffffffffffff1673ffffffffffffffffffffffffffffffffffffffff16815260200190815260200160002060003373ffffffffffffffffffffffffffffffffffffffff1673ffffffffffffffffffffffffffffffffffffffff16815260200190815260200160002060009054906101000a900460ff161561123d5760006006600060058481548110610d9d57610d9c61513a565b5b9060005260206000200160009054906101000a900473ffffffffffffffffffffffffffffffffffffffff1673ffffffffffffffffffffffffffffffffffffffff1673ffffffffffffffffffffffffffffffffffffffff1681526020019081526020016000209050806040518061016001604052908160008201548152602001600182018054610e2b90615030565b80601f0160208091040260200160405190810160405280929190818152602001828054610e5790615030565b8015610ea45780601f10610e7957610100808354040283529160200191610ea4565b820191906000526020600020905b815481529060010190602001808311610e8757829003601f168201915b50505050508152602001600282018054610ebd90615030565b80601f0160208091040260200160405190810160405280929190818152602001828054610ee990615030565b8015610f365780601f10610f0b57610100808354040283529160200191610f36565b820191906000526020600020905b815481529060010190602001808311610f1957829003601f168201915b50505050508152602001600382018054610f4f90615030565b80601f0160208091040260200160405190810160405280929190818152602001828054610f7b90615030565b8015610fc85780601f10610f9d57610100808354040283529160200191610fc8565b820191906000526020600020905b815481529060010190602001808311610fab57829003601f168201915b50505050508152602001600482018054610fe190615030565b80601f016020809104026020016040519081016040528092919081815260200182805461100d90615030565b801561105a5780601f1061102f5761010080835404028352916020019161105a565b820191906000526020600020905b81548152906001019060200180831161103d57829003601f168201915b5050505050815260200160058201805461107390615030565b80601f016020809104026020016040519081016040528092919081815260200182805461109f90615030565b80156110ec5780601f106110c1576101008083540402835291602001916110ec565b820191906000526020600020905b8154815290600101906020018083116110cf57829003601f168201915b5050505050815260200160068201805461110590615030565b80601f016020809104026020016040519081016040528092919081815260200182805461113190615030565b801561117e5780601f106111535761010080835404028352916020019161117e565b820191906000526020600020905b81548152906001019060200180831161116157829003601f168201915b505050505081526020016007820160009054906101000a900473ffffffffffffffffffffffffffffffffffffffff1673ffffffffffffffffffffffffffffffffffffffff1673ffffffffffffffffffffffffffffffffffffffff1681526020016007820160149054906101000a900460ff161515151581526020016007820160159054906101000a900460ff161515151581526020016008820154815250508383815181106112305761122f61513a565b5b6020026020010181905250505b808061124890615093565b915050610c2f565b5080935050505090565b60011515600660003373ffffffffffffffffffffffffffffffffffffffff1673ffffffffffffffffffffffffffffffffffffffff16815260200190815260200160002060070160149054906101000a900460ff161515146112f0576040517f08c379a00000000000000000000000000000000000000000000000000000000081526004016112e790614d33565b60405180910390fd5b60005b81518110156119a4576000604051806101200160405280600660003373ffffffffffffffffffffffffffffffffffffffff1673ffffffffffffffffffffffffffffffffffffffff1681526020019081526020016000206008015481526020018484815181106113655761136461513a565b5b60200260200101516020015181526020018484815181106113895761138861513a565b5b60200260200101516040015181526020018484815181106113ad576113ac61513a565b5b6020026020010151606001518152602001600660003373ffffffffffffffffffffffffffffffffffffffff1673ffffffffffffffffffffffffffffffffffffffff1681526020019081526020016000206000015481526020013373ffffffffffffffffffffffffffffffffffffffff16815260200160001515815260200184848151811061143e5761143d61513a565b5b602002602001015160e0015173ffffffffffffffffffffffffffffffffffffffff1681526020016000815250905080600460003373ffffffffffffffffffffffffffffffffffffffff1673ffffffffffffffffffffffffffffffffffffffff1681526020019081526020016000206000600660003373ffffffffffffffffffffffffffffffffffffffff1673ffffffffffffffffffffffffffffffffffffffff168152602001908152602001600020600801548152602001908152602001600020600082015181600001556020820151816001019080519060200190611525929190613ed2565b506040820151816002019080519060200190611542929190613ed2565b50606082015181600301556080820151816004015560a08201518160050160006101000a81548173ffffffffffffffffffffffffffffffffffffffff021916908373ffffffffffffffffffffffffffffffffffffffff16021790555060c08201518160050160146101000a81548160ff02191690831515021790555060e08201518160060160006101000a81548173ffffffffffffffffffffffffffffffffffffffff021916908373ffffffffffffffffffffffffffffffffffffffff1602179055506101008201518160070155905050600660003373ffffffffffffffffffffffffffffffffffffffff1673ffffffffffffffffffffffffffffffffffffffff168152602001908152602001600020600801600081548092919061166690615093565b91905055506000600660003373ffffffffffffffffffffffffffffffffffffffff1673ffffffffffffffffffffffffffffffffffffffff16815260200190815260200160002060070160156101000a81548160ff0219169083151502179055506001600860003373ffffffffffffffffffffffffffffffffffffffff1673ffffffffffffffffffffffffffffffffffffffff168152602001908152602001600020600085858151811061171c5761171b61513a565b5b602002602001015160e0015173ffffffffffffffffffffffffffffffffffffffff1673ffffffffffffffffffffffffffffffffffffffff16815260200190815260200160002060006101000a81548160ff0219169083151502179055506000805b600960008686815181106117945761179361513a565b5b602002602001015160e0015173ffffffffffffffffffffffffffffffffffffffff1673ffffffffffffffffffffffffffffffffffffffff168152602001908152602001600020805490508110156118ca573373ffffffffffffffffffffffffffffffffffffffff16600960008787815181106118135761181261513a565b5b602002602001015160e0015173ffffffffffffffffffffffffffffffffffffffff1673ffffffffffffffffffffffffffffffffffffffff168152602001908152602001600020828154811061186b5761186a61513a565b5b9060005260206000200160009054906101000a900473ffffffffffffffffffffffffffffffffffffffff1673ffffffffffffffffffffffffffffffffffffffff1614156118b757600191505b80806118c290615093565b91505061177d565b508061198f57600960008585815181106118e7576118e661513a565b5b602002602001015160e0015173ffffffffffffffffffffffffffffffffffffffff1673ffffffffffffffffffffffffffffffffffffffff168152602001908152602001600020339080600181540180825580915050600190039060005260206000200160009091909190916101000a81548173ffffffffffffffffffffffffffffffffffffffff021916908373ffffffffffffffffffffffffffffffffffffffff1602179055505b5050808061199c90615093565b9150506112f3565b507fe62bbaa8353f2583d18ad19c07fd6127451fc72430de5bd6e851a44ee168c483816040516119d49190614c51565b60405180910390a150565b606060008054906101000a900473ffffffffffffffffffffffffffffffffffffffff1673ffffffffffffffffffffffffffffffffffffffff163373ffffffffffffffffffffffffffffffffffffffff1614611a6f576040517f08c379a0000000000000000000000000000000000000000000000000000000008152600401611a6690614c73565b60405180910390fd5b600060015467ffffffffffffffff811115611a8d57611a8c615169565b5b604051908082528060200260200182016040528015611ac657816020015b611ab3613e5e565b815260200190600190039081611aab5790505b50905060005b600154811015611fa25760006006600060058481548110611af057611aef61513a565b5b9060005260206000200160009054906101000a900473ffffffffffffffffffffffffffffffffffffffff1673ffffffffffffffffffffffffffffffffffffffff1673ffffffffffffffffffffffffffffffffffffffff1681526020019081526020016000209050806040518061016001604052908160008201548152602001600182018054611b7e90615030565b80601f0160208091040260200160405190810160405280929190818152602001828054611baa90615030565b8015611bf75780601f10611bcc57610100808354040283529160200191611bf7565b820191906000526020600020905b815481529060010190602001808311611bda57829003601f168201915b50505050508152602001600282018054611c1090615030565b80601f0160208091040260200160405190810160405280929190818152602001828054611c3c90615030565b8015611c895780601f10611c5e57610100808354040283529160200191611c89565b820191906000526020600020905b815481529060010190602001808311611c6c57829003601f168201915b50505050508152602001600382018054611ca290615030565b80601f0160208091040260200160405190810160405280929190818152602001828054611cce90615030565b8015611d1b5780601f10611cf057610100808354040283529160200191611d1b565b820191906000526020600020905b815481529060010190602001808311611cfe57829003601f168201915b50505050508152602001600482018054611d3490615030565b80601f0160208091040260200160405190810160405280929190818152602001828054611d6090615030565b8015611dad5780601f10611d8257610100808354040283529160200191611dad565b820191906000526020600020905b815481529060010190602001808311611d9057829003601f168201915b50505050508152602001600582018054611dc690615030565b80601f0160208091040260200160405190810160405280929190818152602001828054611df290615030565b8015611e3f5780601f10611e1457610100808354040283529160200191611e3f565b820191906000526020600020905b815481529060010190602001808311611e2257829003601f168201915b50505050508152602001600682018054611e5890615030565b80601f0160208091040260200160405190810160405280929190818152602001828054611e8490615030565b8015611ed15780601f10611ea657610100808354040283529160200191611ed1565b820191906000526020600020905b815481529060010190602001808311611eb457829003601f168201915b505050505081526020016007820160009054906101000a900473ffffffffffffffffffffffffffffffffffffffff1673ffffffffffffffffffffffffffffffffffffffff1673ffffffffffffffffffffffffffffffffffffffff1681526020016007820160149054906101000a900460ff161515151581526020016007820160159054906101000a900460ff16151515158152602001600882015481525050838381518110611f8357611f8261513a565b5b6020026020010181905250508080611f9a90615093565b915050611acc565b508091505090565b606033611fb681613d51565b611ff5576040517f08c379a0000000000000000000000000000000000000000000000000000000008152600401611fec90614cf3565b60405180910390fd5b6000805b600660008673ffffffffffffffffffffffffffffffffffffffff1673ffffffffffffffffffffffffffffffffffffffff1681526020019081526020016000206008015481101561217657600460008673ffffffffffffffffffffffffffffffffffffffff1673ffffffffffffffffffffffffffffffffffffffff168152602001908152602001600020600082815260200190815260200160002060050160149054906101000a900460ff1615801561214f57503373ffffffffffffffffffffffffffffffffffffffff16600460008773ffffffffffffffffffffffffffffffffffffffff1673ffffffffffffffffffffffffffffffffffffffff168152602001908152602001600020600083815260200190815260200160002060060160009054906101000a900473ffffffffffffffffffffffffffffffffffffffff1673ffffffffffffffffffffffffffffffffffffffff16145b1561216357818061215f90615093565b9250505b808061216e90615093565b915050611ff9565b5060008167ffffffffffffffff81111561219357612192615169565b5b6040519080825280602002602001820160405280156121cc57816020015b6121b9613f58565b8152602001906001900390816121b15790505b5090506000805b600660008873ffffffffffffffffffffffffffffffffffffffff1673ffffffffffffffffffffffffffffffffffffffff168152602001908152602001600020600801548110156125ee57600460008873ffffffffffffffffffffffffffffffffffffffff1673ffffffffffffffffffffffffffffffffffffffff168152602001908152602001600020600082815260200190815260200160002060050160149054906101000a900460ff1615801561232957503373ffffffffffffffffffffffffffffffffffffffff16600460008973ffffffffffffffffffffffffffffffffffffffff1673ffffffffffffffffffffffffffffffffffffffff168152602001908152602001600020600083815260200190815260200160002060060160009054906101000a900473ffffffffffffffffffffffffffffffffffffffff1673ffffffffffffffffffffffffffffffffffffffff16145b801561233457508382105b156125db576000600460008973ffffffffffffffffffffffffffffffffffffffff1673ffffffffffffffffffffffffffffffffffffffff168152602001908152602001600020600083815260200190815260200160002090508060405180610120016040529081600082015481526020016001820180546123b490615030565b80601f01602080910402602001604051908101604052809291908181526020018280546123e090615030565b801561242d5780601f106124025761010080835404028352916020019161242d565b820191906000526020600020905b81548152906001019060200180831161241057829003601f168201915b5050505050815260200160028201805461244690615030565b80601f016020809104026020016040519081016040528092919081815260200182805461247290615030565b80156124bf5780601f10612494576101008083540402835291602001916124bf565b820191906000526020600020905b8154815290600101906020018083116124a257829003601f168201915b5050505050815260200160038201548152602001600482015481526020016005820160009054906101000a900473ffffffffffffffffffffffffffffffffffffffff1673ffffffffffffffffffffffffffffffffffffffff1673ffffffffffffffffffffffffffffffffffffffff1681526020016005820160149054906101000a900460ff161515151581526020016006820160009054906101000a900473ffffffffffffffffffffffffffffffffffffffff1673ffffffffffffffffffffffffffffffffffffffff1673ffffffffffffffffffffffffffffffffffffffff1681526020016007820154815250508484815181106125c0576125bf61513a565b5b602002602001018190525082806125d690615093565b935050505b80806125e690615093565b9150506121d3565b5081945050505050919050565b612603613e5e565b606060011515600660003373ffffffffffffffffffffffffffffffffffffffff1673ffffffffffffffffffffffffffffffffffffffff16815260200190815260200160002060070160149054906101000a900460ff1615151461269b576040517f08c379a000000000000000000000000000000000000000000000000000000000815260040161269290614d33565b60405180910390fd5b6000600660003373ffffffffffffffffffffffffffffffffffffffff1673ffffffffffffffffffffffffffffffffffffffff168152602001908152602001600020604051806101600160405290816000820154815260200160018201805461270290615030565b80601f016020809104026020016040519081016040528092919081815260200182805461272e90615030565b801561277b5780601f106127505761010080835404028352916020019161277b565b820191906000526020600020905b81548152906001019060200180831161275e57829003601f168201915b5050505050815260200160028201805461279490615030565b80601f01602080910402602001604051908101604052809291908181526020018280546127c090615030565b801561280d5780601f106127e25761010080835404028352916020019161280d565b820191906000526020600020905b8154815290600101906020018083116127f057829003601f168201915b5050505050815260200160038201805461282690615030565b80601f016020809104026020016040519081016040528092919081815260200182805461285290615030565b801561289f5780601f106128745761010080835404028352916020019161289f565b820191906000526020600020905b81548152906001019060200180831161288257829003601f168201915b505050505081526020016004820180546128b890615030565b80601f01602080910402602001604051908101604052809291908181526020018280546128e490615030565b80156129315780601f1061290657610100808354040283529160200191612931565b820191906000526020600020905b81548152906001019060200180831161291457829003601f168201915b5050505050815260200160058201805461294a90615030565b80601f016020809104026020016040519081016040528092919081815260200182805461297690615030565b80156129c35780601f10612998576101008083540402835291602001916129c3565b820191906000526020600020905b8154815290600101906020018083116129a657829003601f168201915b505050505081526020016006820180546129dc90615030565b80601f0160208091040260200160405190810160405280929190818152602001828054612a0890615030565b8015612a555780601f10612a2a57610100808354040283529160200191612a55565b820191906000526020600020905b815481529060010190602001808311612a3857829003601f168201915b505050505081526020016007820160009054906101000a900473ffffffffffffffffffffffffffffffffffffffff1673ffffffffffffffffffffffffffffffffffffffff1673ffffffffffffffffffffffffffffffffffffffff1681526020016007820160149054906101000a900460ff161515151581526020016007820160159054906101000a900460ff1615151515815260200160088201548152505090506000612b01336139b8565b905081819350935050509091565b60008060009054906101000a900473ffffffffffffffffffffffffffffffffffffffff16905090565b60011515600660003373ffffffffffffffffffffffffffffffffffffffff1673ffffffffffffffffffffffffffffffffffffffff16815260200190815260200160002060070160149054906101000a900460ff16151514612bce576040517f08c379a0000000000000000000000000000000000000000000000000000000008152600401612bc590614d33565b60405180910390fd5b60005b8151811015612c955760025442612be89190614f50565b600760003373ffffffffffffffffffffffffffffffffffffffff1673ffffffffffffffffffffffffffffffffffffffff1681526020019081526020016000206000848481518110612c3c57612c3b61513a565b5b602002602001015173ffffffffffffffffffffffffffffffffffffffff1673ffffffffffffffffffffffffffffffffffffffff168152602001908152602001600020819055508080612c8d90615093565b915050612bd1565b5050565b6000600360009054906101000a900473ffffffffffffffffffffffffffffffffffffffff1673ffffffffffffffffffffffffffffffffffffffff166398dcc0006040518163ffffffff1660e01b815260040160206040518083038186803b158015612d0357600080fd5b505afa158015612d17573d6000803e3d6000fd5b505050506040513d601f19601f82011682018060405250810190612d3b9190614624565b905090565b600060011515600660003373ffffffffffffffffffffffffffffffffffffffff1673ffffffffffffffffffffffffffffffffffffffff16815260200190815260200160002060070160149054906101000a900460ff16151514612dd8576040517f08c379a0000000000000000000000000000000000000000000000000000000008152600401612dcf90614d33565b60405180910390fd5b600660008373ffffffffffffffffffffffffffffffffffffffff1673ffffffffffffffffffffffffffffffffffffffff168152602001908152602001600020600801549050919050565b6000600254905090565b60008054906101000a900473ffffffffffffffffffffffffffffffffffffffff1673ffffffffffffffffffffffffffffffffffffffff163373ffffffffffffffffffffffffffffffffffffffff1614612eba576040517f08c379a0000000000000000000000000000000000000000000000000000000008152600401612eb190614c73565b60405180910390fd5b8060028190555050565b6000600360009054906101000a900473ffffffffffffffffffffffffffffffffffffffff1673ffffffffffffffffffffffffffffffffffffffff1663bacc8a9a6040518163ffffffff1660e01b815260040160206040518083038186803b158015612f2e57600080fd5b505afa158015612f42573d6000803e3d6000fd5b505050506040513d601f19601f82011682018060405250810190612f669190614624565b905090565b6000806000905060011515600660003373ffffffffffffffffffffffffffffffffffffffff1673ffffffffffffffffffffffffffffffffffffffff16815260200190815260200160002060070160149054906101000a900460ff1615151415612fd75760019050613061565b612fe033613904565b15612fee5760029050613060565b612ff733613d51565b15613005576003905061305f565b60008054906101000a900473ffffffffffffffffffffffffffffffffffffffff1673ffffffffffffffffffffffffffffffffffffffff163373ffffffffffffffffffffffffffffffffffffffff16141561305e57600590505b5b5b5b8091505090565b3361307281613d51565b6130b1576040517f08c379a00000000000000000000000000000000000000000000000000000000081526004016130a890614cf3565b60405180910390fd5b60006001905060006001905060005b600660008673ffffffffffffffffffffffffffffffffffffffff1673ffffffffffffffffffffffffffffffffffffffff168152602001908152602001600020600801548110156133d05760005b86518110156132f657613219600460008873ffffffffffffffffffffffffffffffffffffffff1673ffffffffffffffffffffffffffffffffffffffff1681526020019081526020016000206000848152602001908152602001600020600101805461317790615030565b80601f01602080910402602001604051908101604052809291908181526020018280546131a390615030565b80156131f05780601f106131c5576101008083540402835291602001916131f0565b820191906000526020600020905b8154815290600101906020018083116131d357829003601f168201915b50505050508883815181106132085761320761513a565b5b602002602001015160200151613e05565b156132e3576001600460008873ffffffffffffffffffffffffffffffffffffffff1673ffffffffffffffffffffffffffffffffffffffff168152602001908152602001600020600084815260200190815260200160002060050160146101000a81548160ff02191690831515021790555042600460008873ffffffffffffffffffffffffffffffffffffffff1673ffffffffffffffffffffffffffffffffffffffff1681526020019081526020016000206000848152602001908152602001600020600701819055505b80806132ee90615093565b91505061310d565b508280156133615750600460008673ffffffffffffffffffffffffffffffffffffffff1673ffffffffffffffffffffffffffffffffffffffff168152602001908152602001600020600082815260200190815260200160002060050160149054906101000a900460ff165b925082600660008773ffffffffffffffffffffffffffffffffffffffff1673ffffffffffffffffffffffffffffffffffffffff16815260200190815260200160002060070160156101000a81548160ff02191690831515021790555080806133c890615093565b9150506130c0565b5060005b600660008673ffffffffffffffffffffffffffffffffffffffff1673ffffffffffffffffffffffffffffffffffffffff16815260200190815260200160002060080154811015613545573373ffffffffffffffffffffffffffffffffffffffff16600460008773ffffffffffffffffffffffffffffffffffffffff1673ffffffffffffffffffffffffffffffffffffffff168152602001908152602001600020600083815260200190815260200160002060060160009054906101000a900473ffffffffffffffffffffffffffffffffffffffff1673ffffffffffffffffffffffffffffffffffffffff1614156135325781801561352f5750600460008673ffffffffffffffffffffffffffffffffffffffff1673ffffffffffffffffffffffffffffffffffffffff168152602001908152602001600020600082815260200190815260200160002060050160149054906101000a900460ff165b91505b808061353d90615093565b9150506133d4565b508015600860008673ffffffffffffffffffffffffffffffffffffffff1673ffffffffffffffffffffffffffffffffffffffff16815260200190815260200160002060003373ffffffffffffffffffffffffffffffffffffffff1673ffffffffffffffffffffffffffffffffffffffff16815260200190815260200160002060006101000a81548160ff0219169083151502179055505050505050565b6000600154905090565b60001515600660003373ffffffffffffffffffffffffffffffffffffffff1673ffffffffffffffffffffffffffffffffffffffff16815260200190815260200160002060070160149054906101000a900460ff16151514613682576040517f08c379a000000000000000000000000000000000000000000000000000000000815260040161367990614d13565b60405180910390fd5b600060405180610160016040528060015481526020018881526020018781526020018681526020018581526020018481526020018381526020013373ffffffffffffffffffffffffffffffffffffffff1681526020016001151581526020016000151581526020016000815250905080600660003373ffffffffffffffffffffffffffffffffffffffff1673ffffffffffffffffffffffffffffffffffffffff168152602001908152602001600020600082015181600001556020820151816001019080519060200190613757929190613ed2565b506040820151816002019080519060200190613774929190613ed2565b506060820151816003019080519060200190613791929190613ed2565b5060808201518160040190805190602001906137ae929190613ed2565b5060a08201518160050190805190602001906137cb929190613ed2565b5060c08201518160060190805190602001906137e8929190613ed2565b5060e08201518160070160006101000a81548173ffffffffffffffffffffffffffffffffffffffff021916908373ffffffffffffffffffffffffffffffffffffffff1602179055506101008201518160070160146101000a81548160ff0219169083151502179055506101208201518160070160156101000a81548160ff02191690831515021790555061014082015181600801559050506005339080600181540180825580915050600190039060005260206000200160009091909190916101000a81548173ffffffffffffffffffffffffffffffffffffffff021916908373ffffffffffffffffffffffffffffffffffffffff160217905550600160008154809291906138f690615093565b919050555050505050505050565b6000600360009054906101000a900473ffffffffffffffffffffffffffffffffffffffff1673ffffffffffffffffffffffffffffffffffffffff1663e6f9cad2836040518263ffffffff1660e01b81526004016139619190614c14565b60206040518083038186803b15801561397957600080fd5b505afa15801561398d573d6000803e3d6000fd5b505050506040513d601f19601f820116820180604052508101906139b19190614495565b9050919050565b60606000600660008473ffffffffffffffffffffffffffffffffffffffff1673ffffffffffffffffffffffffffffffffffffffff1681526020019081526020016000206008015467ffffffffffffffff811115613a1857613a17615169565b5b604051908082528060200260200182016040528015613a5157816020015b613a3e613f58565b815260200190600190039081613a365790505b50905060005b600660008573ffffffffffffffffffffffffffffffffffffffff1673ffffffffffffffffffffffffffffffffffffffff16815260200190815260200160002060080154811015613d47576000600460008673ffffffffffffffffffffffffffffffffffffffff1673ffffffffffffffffffffffffffffffffffffffff16815260200190815260200160002060008381526020019081526020016000209050806040518061012001604052908160008201548152602001600182018054613b1c90615030565b80601f0160208091040260200160405190810160405280929190818152602001828054613b4890615030565b8015613b955780601f10613b6a57610100808354040283529160200191613b95565b820191906000526020600020905b815481529060010190602001808311613b7857829003601f168201915b50505050508152602001600282018054613bae90615030565b80601f0160208091040260200160405190810160405280929190818152602001828054613bda90615030565b8015613c275780601f10613bfc57610100808354040283529160200191613c27565b820191906000526020600020905b815481529060010190602001808311613c0a57829003601f168201915b5050505050815260200160038201548152602001600482015481526020016005820160009054906101000a900473ffffffffffffffffffffffffffffffffffffffff1673ffffffffffffffffffffffffffffffffffffffff1673ffffffffffffffffffffffffffffffffffffffff1681526020016005820160149054906101000a900460ff161515151581526020016006820160009054906101000a900473ffffffffffffffffffffffffffffffffffffffff1673ffffffffffffffffffffffffffffffffffffffff1673ffffffffffffffffffffffffffffffffffffffff168152602001600782015481525050838381518110613d2857613d2761513a565b5b6020026020010181905250508080613d3f90615093565b915050613a57565b5080915050919050565b6000600360009054906101000a900473ffffffffffffffffffffffffffffffffffffffff1673ffffffffffffffffffffffffffffffffffffffff16636cacbf30836040518263ffffffff1660e01b8152600401613dae9190614c14565b60206040518083038186803b158015613dc657600080fd5b505afa158015613dda573d6000803e3d6000fd5b505050506040513d601f19601f82011682018060405250810190613dfe9190614495565b9050919050565b600081604051602001613e189190614bfd565b6040516020818303038152906040528051906020012083604051602001613e3f9190614bfd565b6040516020818303038152906040528051906020012014905092915050565b60405180610160016040528060008152602001606081526020016060815260200160608152602001606081526020016060815260200160608152602001600073ffffffffffffffffffffffffffffffffffffffff168152602001600015158152602001600015158152602001600081525090565b828054613ede90615030565b90600052602060002090601f016020900481019282613f005760008555613f47565b82601f10613f1957805160ff1916838001178555613f47565b82800160010185558215613f47579182015b82811115613f46578251825591602001919060010190613f2b565b5b509050613f549190613fd2565b5090565b6040518061012001604052806000815260200160608152602001606081526020016000815260200160008152602001600073ffffffffffffffffffffffffffffffffffffffff168152602001600015158152602001600073ffffffffffffffffffffffffffffffffffffffff168152602001600081525090565b5b80821115613feb576000816000905550600101613fd3565b5090565b6000614002613ffd84614e1d565b614df8565b90508083825260208201905082856020860282011115614025576140246151a7565b5b60005b85811015614055578161403b888261412f565b845260208401935060208301925050600181019050614028565b5050509392505050565b600061407261406d84614e49565b614df8565b90508083825260208201905082856020860282011115614095576140946151a7565b5b60005b858110156140e357813567ffffffffffffffff8111156140bb576140ba615198565b5b8086016140c889826141f8565b85526020850194506020840193505050600181019050614098565b5050509392505050565b60006141006140fb84614e75565b614df8565b90508281526020810184848401111561411c5761411b6151ac565b5b614127848285614fee565b509392505050565b60008135905061413e816153a9565b92915050565b600082601f83011261415957614158615198565b5b8135614169848260208601613fef565b91505092915050565b600082601f83011261418757614186615198565b5b813561419784826020860161405f565b91505092915050565b6000813590506141af816153c0565b92915050565b6000815190506141c4816153c0565b92915050565b600082601f8301126141df576141de615198565b5b81356141ef8482602086016140ed565b91505092915050565b6000610120828403121561420f5761420e61519d565b5b61421a610120614df8565b9050600061422a84828501614310565b600083015250602082013567ffffffffffffffff81111561424e5761424d6151a2565b5b61425a848285016141ca565b602083015250604082013567ffffffffffffffff81111561427e5761427d6151a2565b5b61428a848285016141ca565b604083015250606061429e84828501614310565b60608301525060806142b284828501614310565b60808301525060a06142c68482850161412f565b60a08301525060c06142da848285016141a0565b60c08301525060e06142ee8482850161412f565b60e08301525061010061430384828501614310565b6101008301525092915050565b60008135905061431f816153d7565b92915050565b600081519050614334816153d7565b92915050565b6000602082840312156143505761434f6151b6565b5b600061435e8482850161412f565b91505092915050565b6000806040838503121561437e5761437d6151b6565b5b600061438c8582860161412f565b925050602061439d85828601614310565b9150509250929050565b6000602082840312156143bd576143bc6151b6565b5b600082013567ffffffffffffffff8111156143db576143da6151b1565b5b6143e784828501614144565b91505092915050565b600060208284031215614406576144056151b6565b5b600082013567ffffffffffffffff811115614424576144236151b1565b5b61443084828501614172565b91505092915050565b600080604083850312156144505761444f6151b6565b5b600083013567ffffffffffffffff81111561446e5761446d6151b1565b5b61447a85828601614172565b925050602061448b8582860161412f565b9150509250929050565b6000602082840312156144ab576144aa6151b6565b5b60006144b9848285016141b5565b91505092915050565b60008060008060008060c087890312156144df576144de6151b6565b5b600087013567ffffffffffffffff8111156144fd576144fc6151b1565b5b61450989828a016141ca565b965050602087013567ffffffffffffffff81111561452a576145296151b1565b5b61453689828a016141ca565b955050604087013567ffffffffffffffff811115614557576145566151b1565b5b61456389828a016141ca565b945050606087013567ffffffffffffffff811115614584576145836151b1565b5b61459089828a016141ca565b935050608087013567ffffffffffffffff8111156145b1576145b06151b1565b5b6145bd89828a016141ca565b92505060a087013567ffffffffffffffff8111156145de576145dd6151b1565b5b6145ea89828a016141ca565b9150509295509295509295565b60006020828403121561460d5761460c6151b6565b5b600061461b84828501614310565b91505092915050565b60006020828403121561463a576146396151b6565b5b600061464884828501614325565b91505092915050565b600061465d83836148ef565b905092915050565b60006146718383614b13565b905092915050565b61468281614fa6565b82525050565b61469181614fa6565b82525050565b60006146a282614ec6565b6146ac8185614f01565b9350836020820285016146be85614ea6565b8060005b858110156146fa57848403895281516146db8582614651565b94506146e683614ee7565b925060208a019950506001810190506146c2565b50829750879550505050505092915050565b600061471782614ed1565b6147218185614f12565b93508360208202850161473385614eb6565b8060005b8581101561476f57848403895281516147508582614665565b945061475b83614ef4565b925060208a01995050600181019050614737565b50829750879550505050505092915050565b61478a81614fb8565b82525050565b600061479b82614edc565b6147a58185614f23565b93506147b5818560208601614ffd565b6147be816151bb565b840191505092915050565b60006147d482614edc565b6147de8185614f45565b93506147ee818560208601614ffd565b80840191505092915050565b6000614807602683614f34565b9150614812826151cc565b604082019050919050565b600061482a602e83614f34565b91506148358261521b565b604082019050919050565b600061484d602b83614f34565b91506148588261526a565b604082019050919050565b6000614870603583614f34565b915061487b826152b9565b604082019050919050565b6000614893603483614f34565b915061489e82615308565b604082019050919050565b60006148b6601d83614f34565b91506148c182615357565b602082019050919050565b60006148d9601e83614f34565b91506148e482615380565b602082019050919050565b6000610160830160008301516149086000860182614bdf565b50602083015184820360208601526149208282614790565b9150506040830151848203604086015261493a8282614790565b915050606083015184820360608601526149548282614790565b9150506080830151848203608086015261496e8282614790565b91505060a083015184820360a08601526149888282614790565b91505060c083015184820360c08601526149a28282614790565b91505060e08301516149b760e0860182614679565b506101008301516149cc610100860182614781565b506101208301516149e1610120860182614781565b506101408301516149f6610140860182614bdf565b508091505092915050565b600061016083016000830151614a1a6000860182614bdf565b5060208301518482036020860152614a328282614790565b91505060408301518482036040860152614a4c8282614790565b91505060608301518482036060860152614a668282614790565b91505060808301518482036080860152614a808282614790565b91505060a083015184820360a0860152614a9a8282614790565b91505060c083015184820360c0860152614ab48282614790565b91505060e0830151614ac960e0860182614679565b50610100830151614ade610100860182614781565b50610120830151614af3610120860182614781565b50610140830151614b08610140860182614bdf565b508091505092915050565b600061012083016000830151614b2c6000860182614bdf565b5060208301518482036020860152614b448282614790565b91505060408301518482036040860152614b5e8282614790565b9150506060830151614b736060860182614bdf565b506080830151614b866080860182614bdf565b5060a0830151614b9960a0860182614679565b5060c0830151614bac60c0860182614781565b5060e0830151614bbf60e0860182614679565b50610100830151614bd4610100860182614bdf565b508091505092915050565b614be881614fe4565b82525050565b614bf781614fe4565b82525050565b6000614c0982846147c9565b915081905092915050565b6000602082019050614c296000830184614688565b92915050565b60006020820190508181036000830152614c498184614697565b905092915050565b60006020820190508181036000830152614c6b818461470c565b905092915050565b60006020820190508181036000830152614c8c816147fa565b9050919050565b60006020820190508181036000830152614cac8161481d565b9050919050565b60006020820190508181036000830152614ccc81614840565b9050919050565b60006020820190508181036000830152614cec81614863565b9050919050565b60006020820190508181036000830152614d0c81614886565b9050919050565b60006020820190508181036000830152614d2c816148a9565b9050919050565b60006020820190508181036000830152614d4c816148cc565b9050919050565b60006040820190508181036000830152614d6d8185614a01565b90508181036020830152614d81818461470c565b90509392505050565b60006080820190508181036000830152614da48187614a01565b90508181036020830152614db8818661470c565b9050614dc76040830185614bee565b614dd46060830184614bee565b95945050505050565b6000602082019050614df26000830184614bee565b92915050565b6000614e02614e13565b9050614e0e8282615062565b919050565b6000604051905090565b600067ffffffffffffffff821115614e3857614e37615169565b5b602082029050602081019050919050565b600067ffffffffffffffff821115614e6457614e63615169565b5b602082029050602081019050919050565b600067ffffffffffffffff821115614e9057614e8f615169565b5b614e99826151bb565b9050602081019050919050565b6000819050602082019050919050565b6000819050602082019050919050565b600081519050919050565b600081519050919050565b600081519050919050565b6000602082019050919050565b6000602082019050919050565b600082825260208201905092915050565b600082825260208201905092915050565b600082825260208201905092915050565b600082825260208201905092915050565b600081905092915050565b6000614f5b82614fe4565b9150614f6683614fe4565b9250827fffffffffffffffffffffffffffffffffffffffffffffffffffffffffffffffff03821115614f9b57614f9a6150dc565b5b828201905092915050565b6000614fb182614fc4565b9050919050565b60008115159050919050565b600073ffffffffffffffffffffffffffffffffffffffff82169050919050565b6000819050919050565b82818337600083830152505050565b60005b8381101561501b578082015181840152602081019050615000565b8381111561502a576000848401525b50505050565b6000600282049050600182168061504857607f821691505b6020821081141561505c5761505b61510b565b5b50919050565b61506b826151bb565b810181811067ffffffffffffffff8211171561508a57615089615169565b5b80604052505050565b600061509e82614fe4565b91507fffffffffffffffffffffffffffffffffffffffffffffffffffffffffffffffff8214156150d1576150d06150dc565b5b600182019050919050565b7f4e487b7100000000000000000000000000000000000000000000000000000000600052601160045260246000fd5b7f4e487b7100000000000000000000000000000000000000000000000000000000600052602260045260246000fd5b7f4e487b7100000000000000000000000000000000000000000000000000000000600052603260045260246000fd5b7f4e487b7100000000000000000000000000000000000000000000000000000000600052604160045260246000fd5b600080fd5b600080fd5b600080fd5b600080fd5b600080fd5b600080fd5b600080fd5b6000601f19601f8301169050919050565b7f4f6e6c79206f776e65722063616e20706572666f726d2074686973206f70657260008201527f6174696f6e2e0000000000000000000000000000000000000000000000000000602082015250565b7f526573756d6520697320657870697265642e20526571756573742061206e657760008201527f20617574686f72697a6174696f6e000000000000000000000000000000000000602082015250565b7f596f7520617265206e6f7420617574686f72697a656420746f2076696577207460008201527f68697320726573756d652e000000000000000000000000000000000000000000602082015250565b7f526563727569746572206973206e6f7420617574686f72697a656420746f207060008201527f6572666f726d2074686973206f7065726174696f6e0000000000000000000000602082015250565b7f5665726966696572206973206e6f7420617574686f72697a656420746f20706560008201527f72666f726d2074686973206f7065726174696f6e000000000000000000000000602082015250565b7f43616e64696461746520616c7265616479207265676973746572656421000000600082015250565b7f43616e646964617465206d757374207265676973746572206669727374210000600082015250565b6153b281614fa6565b81146153bd57600080fd5b50565b6153c981614fb8565b81146153d457600080fd5b50565b6153e081614fe4565b81146153eb57600080fd5b5056fea26469706673582212206f495c3a6299153e14dd5e3d263310e13f7aabc06da75677fe02ad41008e4a9e64736f6c63430008070033",
  "immutableReferences": {},
  "source": "// SPDX-License-Identifier: MIT\r\npragma solidity ^0.8.7;\r\n\r\nimport \"./RecruitersVerifiersContract.sol\";\r\n\r\ncontract CandidateContract {\r\n    address owner;\r\n    uint registeredCandidatesCount;\r\n    uint viewResumeTime;\r\n    RecruitersVerifiersContract recruitersVerifiersContract;\r\n\r\n    /**\r\n     * @dev Set contract deployer as owner\r\n     */\r\n    constructor(RecruitersVerifiersContract _recruitersVerifiersContract) {\r\n        owner = msg.sender;\r\n        registeredCandidatesCount = 0;\r\n        viewResumeTime = 120; //Default time in secs to view a resume\r\n        recruitersVerifiersContract = _recruitersVerifiersContract;\r\n    }\r\n\r\n    function getOwner() public view returns(address) {\r\n        return owner;\r\n    }\r\n\r\n    // Only owner can access\r\n    modifier onlyOwner() {\r\n        require(msg.sender == owner, \"Only owner can perform this operation.\");\r\n        _;\r\n    }\r\n\r\n    // Only unregistered candidates\r\n    modifier onlyUnregisteredCandidates() {\r\n        require (candidateDetails[msg.sender].isRegistered == false, \"Candidate already registered!\");\r\n        _;\r\n    }\r\n\r\n    // Only registered candidates\r\n    modifier onlyRegisteredCandidates() {\r\n        require (candidateDetails[msg.sender].isRegistered == true, \"Candidate must register first!\");\r\n        _;\r\n    }\r\n\r\n    // Only authorized verifiers\r\n    modifier onlyAuthorizedVerifiers(address _verifierAddress){\r\n        require(isAuthorizedVerifier(_verifierAddress), \"Verifier is not authorized to perform this operation\");\r\n        _;\r\n    }\r\n\r\n    // Only authorized recruiters\r\n    modifier onlyAuthorizedRecruiters(address _recruiterAddress){\r\n        require(isAuthorizedRecruiter(_recruiterAddress), \"Recruiter is not authorized to perform this operation\");\r\n        _;\r\n    }\r\n\r\n    //Struct for files of the candidate\r\n    struct Experience {\r\n        uint id;\r\n        string hash;\r\n        string title;\r\n        uint experienceType; //Experience type: 1)academic or 2)professional\r\n        uint candidateId;\r\n        address author;\r\n        bool isVerified;\r\n        address verifiableBy;\r\n        uint verificationDate;\r\n    }\r\n    mapping(address => mapping(uint => Experience)) experiencesByCandidate;\r\n    \r\n    //A candidate registered or not registered\r\n    struct Candidate{\r\n        uint id;\r\n        string dni;\r\n        string name;\r\n        string lastName;\r\n        string secondLastName;\r\n        string postalAddress;\r\n        string emailAddress;\r\n        address candidateAddress;\r\n        bool isRegistered;\r\n        bool isVerified;\r\n        uint experienceCount;\r\n    }\r\n    //Address list of registered candidates\r\n    address[] registeredCandidates;\r\n    mapping(address => Candidate) candidateDetails;\r\n\r\n    mapping(address => mapping (address => uint)) candidateRecruiterTmpAuth;\r\n    mapping(address => mapping (address => bool)) candidateVerifierPending;\r\n    mapping(address => address[]) verifiableCandidatesHistoryByVerifier;\r\n\r\n    //Events\r\n    event ExperiencesAdded(Experience[] experiences);\r\n    \r\n    // Everybody can register themselves as candidates, only allowed to unregistered candidates\r\n    function registerCandidate(string memory _dni, string memory _name, string memory _lastName, \r\n    string memory _secondLastName, string memory _postalAddress, string memory _emailAddress) \r\n    public onlyUnregisteredCandidates{\r\n        Candidate memory candidate = Candidate({\r\n            id: registeredCandidatesCount,\r\n            dni: _dni,\r\n            name: _name,\r\n            lastName: _lastName,\r\n            secondLastName: _secondLastName,\r\n            postalAddress: _postalAddress,\r\n            emailAddress: _emailAddress,\r\n            candidateAddress: msg.sender,\r\n            isRegistered: true,\r\n            isVerified: false,\r\n            experienceCount: 0\r\n        });\r\n        candidateDetails[msg.sender] = candidate;\r\n        registeredCandidates.push(msg.sender);\r\n        registeredCandidatesCount++;\r\n    }\r\n\r\n    // Function to authorize recruiters to consult candidates resumes, only allowed to registeredCandidates\r\n    function authorizeRecruiter(address[] memory _recruiterAddresses) public onlyRegisteredCandidates{\r\n        for (uint i = 0; i < _recruiterAddresses.length; i++) {\r\n            candidateRecruiterTmpAuth[msg.sender][_recruiterAddresses[i]] = block.timestamp + viewResumeTime;\r\n        }\r\n    }\r\n\r\n    //Function to get a list of all registered candidates, only for testing purposes (owner)\r\n    function getRegisteredCandidates() public view onlyOwner returns (Candidate[] memory){\r\n        Candidate[] memory candidates = new Candidate[](registeredCandidatesCount);\r\n        for (uint i = 0; i < registeredCandidatesCount; i++) {\r\n            Candidate storage candidate = candidateDetails[registeredCandidates[i]];\r\n            candidates[i] = candidate;\r\n        }\r\n         return candidates;\r\n    }\r\n\r\n    //Function to get a candidate, only for recruiters authorized temporarily\r\n    function getCandidateRecruiter(address _candidateAddress, uint _currentTime) public view onlyAuthorizedRecruiters(msg.sender) returns (Candidate memory, Experience[] memory, uint, uint){\r\n        require (candidateRecruiterTmpAuth[_candidateAddress][msg.sender] > 0, \"You are not authorized to view this resume.\");\r\n        require (candidateRecruiterTmpAuth[_candidateAddress][msg.sender] >= _currentTime, \"Resume is expired. Request a new authorization\");\r\n        Candidate memory candidate = candidateDetails[_candidateAddress];\r\n        Experience[] memory experiences = getAllExperiencesByCandidate(_candidateAddress);\r\n        return (candidate, experiences, candidateRecruiterTmpAuth[_candidateAddress][msg.sender], _currentTime);\r\n    }\r\n\r\n    //Function to get my resume, only for registered candidates\r\n    function getCandidate() public view onlyRegisteredCandidates returns (Candidate memory, Experience[] memory){\r\n        Candidate memory candidate = candidateDetails[msg.sender];\r\n        Experience[] memory experiences = getAllExperiencesByCandidate(msg.sender);\r\n        return (candidate, experiences);\r\n    }\r\n\r\n    // get total number of candidates registered, public\r\n    function getRegisteredCandidateCount() public view returns (uint) {\r\n        return registeredCandidatesCount;\r\n    }\r\n\r\n    // get total experiences by candidate, only allowed to registered candidates\r\n    function getExperienceCountByCandidate(address _address) public view onlyRegisteredCandidates returns (uint) {\r\n        return candidateDetails[_address].experienceCount;\r\n    }\r\n\r\n    // Upload multiple experiences, only allowed to registered candidates\r\n    function addExperiences(Experience[] memory experiences) public onlyRegisteredCandidates{\r\n        for (uint i = 0; i < experiences.length; i++) {\r\n            Experience memory experience = Experience({\r\n                id: candidateDetails[msg.sender].experienceCount,\r\n                hash: experiences[i].hash,\r\n                title: experiences[i].title,\r\n                experienceType: experiences[i].experienceType,\r\n                candidateId: candidateDetails[msg.sender].id,\r\n                author: msg.sender,\r\n                isVerified: false,\r\n                verifiableBy: experiences[i].verifiableBy,\r\n                verificationDate: 0\r\n            });\r\n            experiencesByCandidate[msg.sender][candidateDetails[msg.sender].experienceCount] = experience;\r\n            candidateDetails[msg.sender].experienceCount++;\r\n\r\n            candidateDetails[msg.sender].isVerified = false;\r\n            candidateVerifierPending[msg.sender][experiences[i].verifiableBy] = true;\r\n            bool isCandidateVerifierAlreadyInList = false;\r\n            for (uint j = 0; j < verifiableCandidatesHistoryByVerifier[experiences[i].verifiableBy].length; j++){\r\n                if (verifiableCandidatesHistoryByVerifier[experiences[i].verifiableBy][j] == msg.sender)\r\n                    isCandidateVerifierAlreadyInList = true;\r\n            }\r\n            if (!isCandidateVerifierAlreadyInList)\r\n                verifiableCandidatesHistoryByVerifier[experiences[i].verifiableBy].push(msg.sender);\r\n            \r\n        }\r\n \r\n        emit ExperiencesAdded(experiences);\r\n    }\r\n\r\n    //Function to get a list of all experiences added by a candidate address, only allowed to self registered candidates and recruiters\r\n    function getAllExperiencesByCandidate(address _candidateAddress) private view returns (Experience[] memory){\r\n        Experience[] memory experiences = new Experience[](candidateDetails[_candidateAddress].experienceCount);\r\n        for (uint i = 0; i < candidateDetails[_candidateAddress].experienceCount; i++) {\r\n            Experience storage experience = experiencesByCandidate[_candidateAddress][i];\r\n            experiences[i] = experience;\r\n        }\r\n         return experiences;\r\n    }\r\n\r\n    //Function to get a list of all verifiable experiences of a candidate address, only allowed to authorized verifiers\r\n    function getUnverifiedExperiencesByCandidate(address _candidateAddress) public view onlyAuthorizedVerifiers(msg.sender)\r\n    returns (Experience[] memory){\r\n        uint unverifiedExperiencesCount = 0;\r\n        for (uint i = 0; i < candidateDetails[_candidateAddress].experienceCount; i++) {\r\n            if(!experiencesByCandidate[_candidateAddress][i].isVerified && \r\n            experiencesByCandidate[_candidateAddress][i].verifiableBy == msg.sender)\r\n                unverifiedExperiencesCount++;\r\n        }\r\n        Experience[] memory experiences = new Experience[](unverifiedExperiencesCount);\r\n        uint j = 0;\r\n        for (uint i = 0; i < candidateDetails[_candidateAddress].experienceCount; i++) {\r\n            if(!experiencesByCandidate[_candidateAddress][i].isVerified && \r\n            experiencesByCandidate[_candidateAddress][i].verifiableBy == msg.sender && j < unverifiedExperiencesCount){\r\n                Experience storage experience = experiencesByCandidate[_candidateAddress][i];\r\n                experiences[j] = experience;\r\n                j++;\r\n            }\r\n        }\r\n        return experiences;\r\n    }\r\n\r\n    //Function to get candidates that have not been verified, only for authorized verifiers\r\n    function getVerifiableCandidates() public view onlyAuthorizedVerifiers(msg.sender) returns (Candidate[] memory) {\r\n        uint verifiableCandidatesHistoryCount = 0;\r\n        for (uint i = 0; i < verifiableCandidatesHistoryByVerifier[msg.sender].length; i++) {\r\n            if (candidateVerifierPending[verifiableCandidatesHistoryByVerifier[msg.sender][i]][msg.sender])\r\n                verifiableCandidatesHistoryCount++;\r\n        }\r\n        Candidate[] memory candidates = new Candidate[](verifiableCandidatesHistoryCount);\r\n        for (uint i = 0; i < verifiableCandidatesHistoryByVerifier[msg.sender].length; i++) {\r\n            if (candidateVerifierPending[verifiableCandidatesHistoryByVerifier[msg.sender][i]][msg.sender]){\r\n                Candidate storage candidate = candidateDetails[registeredCandidates[i]];\r\n                candidates[i] = candidate;\r\n            }\r\n        }\r\n        return (candidates);\r\n    }\r\n\r\n    //Function to verify experiences of a candidate, only allowed to authorized verifiers\r\n    function verifyExperiences(Experience[] memory experiences, address _candidateAddress) public onlyAuthorizedVerifiers(msg.sender){\r\n        bool isVerifiedCandidate = true;\r\n        bool isCandidateVerifierNotPending = true;\r\n        for (uint i = 0; i < candidateDetails[_candidateAddress].experienceCount; i++) {\r\n            for (uint j = 0; j < experiences.length; j++) {\r\n                if (compareStrings(experiencesByCandidate[_candidateAddress][i].hash, experiences[j].hash)){\r\n                    experiencesByCandidate[_candidateAddress][i].isVerified = true;\r\n                    experiencesByCandidate[_candidateAddress][i].verificationDate = block.timestamp;\r\n                }\r\n            }\r\n            isVerifiedCandidate = isVerifiedCandidate && experiencesByCandidate[_candidateAddress][i].isVerified;\r\n            candidateDetails[_candidateAddress].isVerified = isVerifiedCandidate;\r\n        }\r\n        for (uint i = 0; i < candidateDetails[_candidateAddress].experienceCount; i++) {\r\n            if (experiencesByCandidate[_candidateAddress][i].verifiableBy == msg.sender){\r\n                isCandidateVerifierNotPending = isCandidateVerifierNotPending && experiencesByCandidate[_candidateAddress][i].isVerified;\r\n            }\r\n        }\r\n        candidateVerifierPending[_candidateAddress][msg.sender] = !isCandidateVerifierNotPending;\r\n    }\r\n\r\n    function getViewResumeTime() public returns (uint){\r\n        return viewResumeTime;\r\n    }\r\n\r\n    function setViewResumeTime(uint _viewResumeTime) public onlyOwner{\r\n        viewResumeTime = _viewResumeTime;\r\n    }\r\n\r\n    function compareStrings (string memory a, string memory b) private pure returns (bool) {\r\n        return (keccak256(abi.encodePacked((a))) == keccak256(abi.encodePacked((b))));\r\n    }\r\n\r\n    function isAuthorizedRecruiter(address _recruiterAddress) private view returns (bool){\r\n        return recruitersVerifiersContract.isAuthorizedRecruiter(_recruiterAddress);\r\n    }\r\n\r\n    function isAuthorizedVerifier(address _verifierAddress) private view returns (bool){\r\n        return recruitersVerifiersContract.isAuthorizedVerifier(_verifierAddress);\r\n    }\r\n\r\n    function getAuthorizedVerifierCount() public view returns (uint){\r\n        return recruitersVerifiersContract.getAuthorizedVerifierCount();\r\n    }\r\n\r\n    function getAuthorizedRecruiterCount() public view returns (uint){\r\n        return recruitersVerifiersContract.getAuthorizedRecruiterCount();\r\n    }\r\n\r\n    function getUserRole() public view returns (uint) {\r\n        uint userRole = 0;\r\n        if (candidateDetails[msg.sender].isRegistered == true)\r\n            userRole = 1;\r\n        else if(isAuthorizedRecruiter(msg.sender))\r\n            userRole = 2;\r\n        else if(isAuthorizedVerifier(msg.sender))\r\n            userRole = 3;\r\n        else if(msg.sender == owner)\r\n            userRole = 5;\r\n        return userRole;\r\n    }\r\n}",
  "sourcePath": "C:\\Users\\Irasema Rivera\\OneDrive\\USAL\\TFM\\CVChain\\contracts\\CandidateContract.sol",
  "compiler": {
    "name": "solc",
    "version": "0.8.7+commit.e28d00a7.Emscripten.clang"
  },
  "schemaVersion": "3.4.7",
  "updatedAt": "2022-07-07T18:27:41.235Z",
  "networkType": "ethereum",
  "devdoc": {
    "kind": "dev",
    "methods": {
      "constructor": {
        "details": "Set contract deployer as owner"
      }
    },
    "version": 1
  },
  "userdoc": {
    "kind": "user",
    "methods": {},
    "version": 1
  }
}