{
  "contractName": "RecruitersVerifiersContract",
  "abi": [
    {
      "inputs": [],
      "stateMutability": "nonpayable",
      "type": "constructor"
    },
    {
      "inputs": [
        {
          "internalType": "uint256",
          "name": "",
          "type": "uint256"
        }
      ],
      "name": "authorizedRecruiters",
      "outputs": [
        {
          "internalType": "address",
          "name": "",
          "type": "address"
        }
      ],
      "stateMutability": "view",
      "type": "function",
      "constant": true
    },
    {
      "inputs": [
        {
          "internalType": "uint256",
          "name": "",
          "type": "uint256"
        }
      ],
      "name": "authorizedVerifiers",
      "outputs": [
        {
          "internalType": "address",
          "name": "",
          "type": "address"
        }
      ],
      "stateMutability": "view",
      "type": "function",
      "constant": true
    },
    {
      "inputs": [
        {
          "internalType": "address",
          "name": "",
          "type": "address"
        },
        {
          "internalType": "address",
          "name": "",
          "type": "address"
        }
      ],
      "name": "candidateRecruiterTmpAuth",
      "outputs": [
        {
          "internalType": "uint256",
          "name": "",
          "type": "uint256"
        }
      ],
      "stateMutability": "view",
      "type": "function",
      "constant": true
    },
    {
      "inputs": [
        {
          "internalType": "address",
          "name": "",
          "type": "address"
        }
      ],
      "name": "recruiterDetails",
      "outputs": [
        {
          "internalType": "uint256",
          "name": "id",
          "type": "uint256"
        },
        {
          "internalType": "string",
          "name": "cif",
          "type": "string"
        },
        {
          "internalType": "string",
          "name": "name",
          "type": "string"
        },
        {
          "internalType": "string",
          "name": "postalAddress",
          "type": "string"
        },
        {
          "internalType": "string",
          "name": "emailAddress",
          "type": "string"
        },
        {
          "internalType": "address",
          "name": "recruiterAddress",
          "type": "address"
        },
        {
          "internalType": "bool",
          "name": "isAuthorized",
          "type": "bool"
        }
      ],
      "stateMutability": "view",
      "type": "function",
      "constant": true
    },
    {
      "inputs": [
        {
          "internalType": "address",
          "name": "",
          "type": "address"
        }
      ],
      "name": "verifierDetails",
      "outputs": [
        {
          "internalType": "uint256",
          "name": "id",
          "type": "uint256"
        },
        {
          "internalType": "string",
          "name": "cif",
          "type": "string"
        },
        {
          "internalType": "string",
          "name": "name",
          "type": "string"
        },
        {
          "internalType": "uint256",
          "name": "verifierType",
          "type": "uint256"
        },
        {
          "internalType": "string",
          "name": "postalAddress",
          "type": "string"
        },
        {
          "internalType": "string",
          "name": "emailAddress",
          "type": "string"
        },
        {
          "internalType": "address",
          "name": "verifierAddress",
          "type": "address"
        },
        {
          "internalType": "bool",
          "name": "isAuthorized",
          "type": "bool"
        }
      ],
      "stateMutability": "view",
      "type": "function",
      "constant": true
    },
    {
      "inputs": [
        {
          "internalType": "string",
          "name": "_cif",
          "type": "string"
        },
        {
          "internalType": "string",
          "name": "_name",
          "type": "string"
        },
        {
          "internalType": "uint256",
          "name": "_verifierType",
          "type": "uint256"
        },
        {
          "internalType": "string",
          "name": "_postalAddress",
          "type": "string"
        },
        {
          "internalType": "string",
          "name": "_emailAddress",
          "type": "string"
        },
        {
          "internalType": "address",
          "name": "_verifierAddress",
          "type": "address"
        }
      ],
      "name": "addAuthorizedVerifiers",
      "outputs": [],
      "stateMutability": "nonpayable",
      "type": "function"
    },
    {
      "inputs": [
        {
          "internalType": "string",
          "name": "_cif",
          "type": "string"
        },
        {
          "internalType": "string",
          "name": "_name",
          "type": "string"
        },
        {
          "internalType": "string",
          "name": "_postalAddress",
          "type": "string"
        },
        {
          "internalType": "string",
          "name": "_emailAddress",
          "type": "string"
        },
        {
          "internalType": "address",
          "name": "_recruiterAddress",
          "type": "address"
        }
      ],
      "name": "addAuthorizedRecruiters",
      "outputs": [],
      "stateMutability": "nonpayable",
      "type": "function"
    },
    {
      "inputs": [
        {
          "internalType": "address",
          "name": "_verifierAddress",
          "type": "address"
        }
      ],
      "name": "getVerifier",
      "outputs": [
        {
          "components": [
            {
              "internalType": "uint256",
              "name": "id",
              "type": "uint256"
            },
            {
              "internalType": "string",
              "name": "cif",
              "type": "string"
            },
            {
              "internalType": "string",
              "name": "name",
              "type": "string"
            },
            {
              "internalType": "uint256",
              "name": "verifierType",
              "type": "uint256"
            },
            {
              "internalType": "string",
              "name": "postalAddress",
              "type": "string"
            },
            {
              "internalType": "string",
              "name": "emailAddress",
              "type": "string"
            },
            {
              "internalType": "address",
              "name": "verifierAddress",
              "type": "address"
            },
            {
              "internalType": "bool",
              "name": "isAuthorized",
              "type": "bool"
            }
          ],
          "internalType": "struct RecruitersVerifiersContract.Verifier",
          "name": "",
          "type": "tuple"
        }
      ],
      "stateMutability": "view",
      "type": "function",
      "constant": true
    },
    {
      "inputs": [
        {
          "internalType": "address",
          "name": "_recruiterAddress",
          "type": "address"
        }
      ],
      "name": "getRecruiter",
      "outputs": [
        {
          "components": [
            {
              "internalType": "uint256",
              "name": "id",
              "type": "uint256"
            },
            {
              "internalType": "string",
              "name": "cif",
              "type": "string"
            },
            {
              "internalType": "string",
              "name": "name",
              "type": "string"
            },
            {
              "internalType": "string",
              "name": "postalAddress",
              "type": "string"
            },
            {
              "internalType": "string",
              "name": "emailAddress",
              "type": "string"
            },
            {
              "internalType": "address",
              "name": "recruiterAddress",
              "type": "address"
            },
            {
              "internalType": "bool",
              "name": "isAuthorized",
              "type": "bool"
            }
          ],
          "internalType": "struct RecruitersVerifiersContract.Recruiter",
          "name": "",
          "type": "tuple"
        }
      ],
      "stateMutability": "view",
      "type": "function",
      "constant": true
    },
    {
      "inputs": [],
      "name": "getAllAuthorizedverifiers",
      "outputs": [
        {
          "components": [
            {
              "internalType": "uint256",
              "name": "id",
              "type": "uint256"
            },
            {
              "internalType": "string",
              "name": "cif",
              "type": "string"
            },
            {
              "internalType": "string",
              "name": "name",
              "type": "string"
            },
            {
              "internalType": "uint256",
              "name": "verifierType",
              "type": "uint256"
            },
            {
              "internalType": "string",
              "name": "postalAddress",
              "type": "string"
            },
            {
              "internalType": "string",
              "name": "emailAddress",
              "type": "string"
            },
            {
              "internalType": "address",
              "name": "verifierAddress",
              "type": "address"
            },
            {
              "internalType": "bool",
              "name": "isAuthorized",
              "type": "bool"
            }
          ],
          "internalType": "struct RecruitersVerifiersContract.Verifier[]",
          "name": "",
          "type": "tuple[]"
        }
      ],
      "stateMutability": "view",
      "type": "function",
      "constant": true
    },
    {
      "inputs": [],
      "name": "getAllAuthorizedRecruiters",
      "outputs": [
        {
          "components": [
            {
              "internalType": "uint256",
              "name": "id",
              "type": "uint256"
            },
            {
              "internalType": "string",
              "name": "cif",
              "type": "string"
            },
            {
              "internalType": "string",
              "name": "name",
              "type": "string"
            },
            {
              "internalType": "string",
              "name": "postalAddress",
              "type": "string"
            },
            {
              "internalType": "string",
              "name": "emailAddress",
              "type": "string"
            },
            {
              "internalType": "address",
              "name": "recruiterAddress",
              "type": "address"
            },
            {
              "internalType": "bool",
              "name": "isAuthorized",
              "type": "bool"
            }
          ],
          "internalType": "struct RecruitersVerifiersContract.Recruiter[]",
          "name": "",
          "type": "tuple[]"
        }
      ],
      "stateMutability": "view",
      "type": "function",
      "constant": true
    },
    {
      "inputs": [],
      "name": "getAuthorizedVerifierCount",
      "outputs": [
        {
          "internalType": "uint256",
          "name": "",
          "type": "uint256"
        }
      ],
      "stateMutability": "view",
      "type": "function",
      "constant": true
    },
    {
      "inputs": [],
      "name": "getAuthorizedRecruiterCount",
      "outputs": [
        {
          "internalType": "uint256",
          "name": "",
          "type": "uint256"
        }
      ],
      "stateMutability": "view",
      "type": "function",
      "constant": true
    },
    {
      "inputs": [
        {
          "internalType": "address",
          "name": "_recruiterAddress",
          "type": "address"
        }
      ],
      "name": "isAuthorizedRecruiter",
      "outputs": [
        {
          "internalType": "bool",
          "name": "",
          "type": "bool"
        }
      ],
      "stateMutability": "view",
      "type": "function",
      "constant": true
    },
    {
      "inputs": [
        {
          "internalType": "address",
          "name": "_verifierAddress",
          "type": "address"
        }
      ],
      "name": "isAuthorizedVerifier",
      "outputs": [
        {
          "internalType": "bool",
          "name": "",
          "type": "bool"
        }
      ],
      "stateMutability": "view",
      "type": "function",
      "constant": true
    }
  ],
  "bytecode": "0x608060405234801561001057600080fd5b50336000806101000a81548173ffffffffffffffffffffffffffffffffffffffff021916908373ffffffffffffffffffffffffffffffffffffffff16021790555060006001819055506000600281905550612c97806100706000396000f3fe608060405234801561001057600080fd5b50600436106100f55760003560e01c806398dcc00011610097578063b766f06c11610066578063b766f06c146102b9578063bacc8a9a146102e9578063dbe8ba1214610307578063e6f9cad214610337576100f5565b806398dcc00014610217578063a84d977614610235578063b29d481f14610265578063b35920171461029b576100f5565b80634464e7da116100d35780634464e7da1461019157806348574ff1146101af5780636cacbf30146101cb5780636f4c19a9146101fb576100f5565b8063059ce95d146100fa57806313c6587a1461012a57806323b1c7ea14610161575b600080fd5b610114600480360381019061010f9190611f4b565b610367565b6040516101219190612776565b60405180910390f35b610144600480360381019061013f9190611f4b565b610694565b60405161015898979695949392919061283e565b60405180910390f35b61017b60048036038101906101769190611f78565b610929565b6040516101889190612798565b60405180910390f35b61019961094e565b6040516101a691906126f7565b60405180910390f35b6101c960048036038101906101c49190611fb8565b610d4c565b005b6101e560048036038101906101e09190611f4b565b610fd7565b6040516101f29190612719565b60405180910390f35b610215600480360381019061021091906120a3565b611030565b005b61021f6112cd565b60405161022c9190612798565b60405180910390f35b61024f600480360381019061024a9190611f4b565b6112d7565b60405161025c9190612754565b60405180910390f35b61027f600480360381019061027a9190611f4b565b6115f9565b60405161029297969594939291906127b3565b60405180910390f35b6102a3611888565b6040516102b091906126d5565b60405180910390f35b6102d360048036038101906102ce91906121a0565b611c7b565b6040516102e091906126ba565b60405180910390f35b6102f1611cba565b6040516102fe9190612798565b60405180910390f35b610321600480360381019061031c91906121a0565b611cc4565b60405161032e91906126ba565b60405180910390f35b610351600480360381019061034c9190611f4b565b611d03565b60405161035e9190612719565b60405180910390f35b61036f611d5c565b6000600460008473ffffffffffffffffffffffffffffffffffffffff1673ffffffffffffffffffffffffffffffffffffffff16815260200190815260200160002060405180610100016040529081600082015481526020016001820180546103d690612a57565b80601f016020809104026020016040519081016040528092919081815260200182805461040290612a57565b801561044f5780601f106104245761010080835404028352916020019161044f565b820191906000526020600020905b81548152906001019060200180831161043257829003601f168201915b5050505050815260200160028201805461046890612a57565b80601f016020809104026020016040519081016040528092919081815260200182805461049490612a57565b80156104e15780601f106104b6576101008083540402835291602001916104e1565b820191906000526020600020905b8154815290600101906020018083116104c457829003601f168201915b505050505081526020016003820154815260200160048201805461050490612a57565b80601f016020809104026020016040519081016040528092919081815260200182805461053090612a57565b801561057d5780601f106105525761010080835404028352916020019161057d565b820191906000526020600020905b81548152906001019060200180831161056057829003601f168201915b5050505050815260200160058201805461059690612a57565b80601f01602080910402602001604051908101604052809291908181526020018280546105c290612a57565b801561060f5780601f106105e45761010080835404028352916020019161060f565b820191906000526020600020905b8154815290600101906020018083116105f257829003601f168201915b505050505081526020016006820160009054906101000a900473ffffffffffffffffffffffffffffffffffffffff1673ffffffffffffffffffffffffffffffffffffffff1673ffffffffffffffffffffffffffffffffffffffff1681526020016006820160149054906101000a900460ff161515151581525050905080915050919050565b60046020528060005260406000206000915090508060000154908060010180546106bd90612a57565b80601f01602080910402602001604051908101604052809291908181526020018280546106e990612a57565b80156107365780601f1061070b57610100808354040283529160200191610736565b820191906000526020600020905b81548152906001019060200180831161071957829003601f168201915b50505050509080600201805461074b90612a57565b80601f016020809104026020016040519081016040528092919081815260200182805461077790612a57565b80156107c45780601f10610799576101008083540402835291602001916107c4565b820191906000526020600020905b8154815290600101906020018083116107a757829003601f168201915b5050505050908060030154908060040180546107df90612a57565b80601f016020809104026020016040519081016040528092919081815260200182805461080b90612a57565b80156108585780601f1061082d57610100808354040283529160200191610858565b820191906000526020600020905b81548152906001019060200180831161083b57829003601f168201915b50505050509080600501805461086d90612a57565b80601f016020809104026020016040519081016040528092919081815260200182805461089990612a57565b80156108e65780601f106108bb576101008083540402835291602001916108e6565b820191906000526020600020905b8154815290600101906020018083116108c957829003601f168201915b5050505050908060060160009054906101000a900473ffffffffffffffffffffffffffffffffffffffff16908060060160149054906101000a900460ff16905088565b6007602052816000526040600020602052806000526040600020600091509150505481565b6060600060015467ffffffffffffffff81111561096e5761096d612b90565b5b6040519080825280602002602001820160405280156109a757816020015b610994611d5c565b81526020019060019003908161098c5790505b50905060005b600154811015610d4457600060046000600384815481106109d1576109d0612b61565b5b9060005260206000200160009054906101000a900473ffffffffffffffffffffffffffffffffffffffff1673ffffffffffffffffffffffffffffffffffffffff1673ffffffffffffffffffffffffffffffffffffffff1681526020019081526020016000209050806040518061010001604052908160008201548152602001600182018054610a5f90612a57565b80601f0160208091040260200160405190810160405280929190818152602001828054610a8b90612a57565b8015610ad85780601f10610aad57610100808354040283529160200191610ad8565b820191906000526020600020905b815481529060010190602001808311610abb57829003601f168201915b50505050508152602001600282018054610af190612a57565b80601f0160208091040260200160405190810160405280929190818152602001828054610b1d90612a57565b8015610b6a5780601f10610b3f57610100808354040283529160200191610b6a565b820191906000526020600020905b815481529060010190602001808311610b4d57829003601f168201915b5050505050815260200160038201548152602001600482018054610b8d90612a57565b80601f0160208091040260200160405190810160405280929190818152602001828054610bb990612a57565b8015610c065780601f10610bdb57610100808354040283529160200191610c06565b820191906000526020600020905b815481529060010190602001808311610be957829003601f168201915b50505050508152602001600582018054610c1f90612a57565b80601f0160208091040260200160405190810160405280929190818152602001828054610c4b90612a57565b8015610c985780601f10610c6d57610100808354040283529160200191610c98565b820191906000526020600020905b815481529060010190602001808311610c7b57829003601f168201915b505050505081526020016006820160009054906101000a900473ffffffffffffffffffffffffffffffffffffffff1673ffffffffffffffffffffffffffffffffffffffff1673ffffffffffffffffffffffffffffffffffffffff1681526020016006820160149054906101000a900460ff161515151581525050838381518110610d2557610d24612b61565b5b6020026020010181905250508080610d3c90612aba565b9150506109ad565b508091505090565b60008054906101000a900473ffffffffffffffffffffffffffffffffffffffff1673ffffffffffffffffffffffffffffffffffffffff163373ffffffffffffffffffffffffffffffffffffffff1614610dda576040517f08c379a0000000000000000000000000000000000000000000000000000000008152600401610dd190612734565b60405180910390fd5b60006040518060e0016040528060025481526020018781526020018681526020018581526020018481526020018373ffffffffffffffffffffffffffffffffffffffff16815260200160011515815250905080600660008473ffffffffffffffffffffffffffffffffffffffff1673ffffffffffffffffffffffffffffffffffffffff168152602001908152602001600020600082015181600001556020820151816001019080519060200190610e92929190611db9565b506040820151816002019080519060200190610eaf929190611db9565b506060820151816003019080519060200190610ecc929190611db9565b506080820151816004019080519060200190610ee9929190611db9565b5060a08201518160050160006101000a81548173ffffffffffffffffffffffffffffffffffffffff021916908373ffffffffffffffffffffffffffffffffffffffff16021790555060c08201518160050160146101000a81548160ff0219169083151502179055509050506005829080600181540180825580915050600190039060005260206000200160009091909190916101000a81548173ffffffffffffffffffffffffffffffffffffffff021916908373ffffffffffffffffffffffffffffffffffffffff16021790555060026000815480929190610fca90612aba565b9190505550505050505050565b6000600460008373ffffffffffffffffffffffffffffffffffffffff1673ffffffffffffffffffffffffffffffffffffffff16815260200190815260200160002060060160149054906101000a900460ff169050919050565b60008054906101000a900473ffffffffffffffffffffffffffffffffffffffff1673ffffffffffffffffffffffffffffffffffffffff163373ffffffffffffffffffffffffffffffffffffffff16146110be576040517f08c379a00000000000000000000000000000000000000000000000000000000081526004016110b590612734565b60405180910390fd5b600060405180610100016040528060015481526020018881526020018781526020018681526020018581526020018481526020018373ffffffffffffffffffffffffffffffffffffffff16815260200160011515815250905080600460008473ffffffffffffffffffffffffffffffffffffffff1673ffffffffffffffffffffffffffffffffffffffff16815260200190815260200160002060008201518160000155602082015181600101908051906020019061117d929190611db9565b50604082015181600201908051906020019061119a929190611db9565b506060820151816003015560808201518160040190805190602001906111c1929190611db9565b5060a08201518160050190805190602001906111de929190611db9565b5060c08201518160060160006101000a81548173ffffffffffffffffffffffffffffffffffffffff021916908373ffffffffffffffffffffffffffffffffffffffff16021790555060e08201518160060160146101000a81548160ff0219169083151502179055509050506003829080600181540180825580915050600190039060005260206000200160009091909190916101000a81548173ffffffffffffffffffffffffffffffffffffffff021916908373ffffffffffffffffffffffffffffffffffffffff160217905550600160008154809291906112bf90612aba565b919050555050505050505050565b6000600154905090565b6112df611e3f565b6000600660008473ffffffffffffffffffffffffffffffffffffffff1673ffffffffffffffffffffffffffffffffffffffff1681526020019081526020016000206040518060e00160405290816000820154815260200160018201805461134590612a57565b80601f016020809104026020016040519081016040528092919081815260200182805461137190612a57565b80156113be5780601f10611393576101008083540402835291602001916113be565b820191906000526020600020905b8154815290600101906020018083116113a157829003601f168201915b505050505081526020016002820180546113d790612a57565b80601f016020809104026020016040519081016040528092919081815260200182805461140390612a57565b80156114505780601f1061142557610100808354040283529160200191611450565b820191906000526020600020905b81548152906001019060200180831161143357829003601f168201915b5050505050815260200160038201805461146990612a57565b80601f016020809104026020016040519081016040528092919081815260200182805461149590612a57565b80156114e25780601f106114b7576101008083540402835291602001916114e2565b820191906000526020600020905b8154815290600101906020018083116114c557829003601f168201915b505050505081526020016004820180546114fb90612a57565b80601f016020809104026020016040519081016040528092919081815260200182805461152790612a57565b80156115745780601f1061154957610100808354040283529160200191611574565b820191906000526020600020905b81548152906001019060200180831161155757829003601f168201915b505050505081526020016005820160009054906101000a900473ffffffffffffffffffffffffffffffffffffffff1673ffffffffffffffffffffffffffffffffffffffff1673ffffffffffffffffffffffffffffffffffffffff1681526020016005820160149054906101000a900460ff161515151581525050905080915050919050565b600660205280600052604060002060009150905080600001549080600101805461162290612a57565b80601f016020809104026020016040519081016040528092919081815260200182805461164e90612a57565b801561169b5780601f106116705761010080835404028352916020019161169b565b820191906000526020600020905b81548152906001019060200180831161167e57829003601f168201915b5050505050908060020180546116b090612a57565b80601f01602080910402602001604051908101604052809291908181526020018280546116dc90612a57565b80156117295780601f106116fe57610100808354040283529160200191611729565b820191906000526020600020905b81548152906001019060200180831161170c57829003601f168201915b50505050509080600301805461173e90612a57565b80601f016020809104026020016040519081016040528092919081815260200182805461176a90612a57565b80156117b75780601f1061178c576101008083540402835291602001916117b7565b820191906000526020600020905b81548152906001019060200180831161179a57829003601f168201915b5050505050908060040180546117cc90612a57565b80601f01602080910402602001604051908101604052809291908181526020018280546117f890612a57565b80156118455780601f1061181a57610100808354040283529160200191611845565b820191906000526020600020905b81548152906001019060200180831161182857829003601f168201915b5050505050908060050160009054906101000a900473ffffffffffffffffffffffffffffffffffffffff16908060050160149054906101000a900460ff16905087565b6060600060015467ffffffffffffffff8111156118a8576118a7612b90565b5b6040519080825280602002602001820160405280156118e157816020015b6118ce611e3f565b8152602001906001900390816118c65790505b50905060005b600254811015611c73576000600660006005848154811061190b5761190a612b61565b5b9060005260206000200160009054906101000a900473ffffffffffffffffffffffffffffffffffffffff1673ffffffffffffffffffffffffffffffffffffffff1673ffffffffffffffffffffffffffffffffffffffff1681526020019081526020016000209050806040518060e00160405290816000820154815260200160018201805461199890612a57565b80601f01602080910402602001604051908101604052809291908181526020018280546119c490612a57565b8015611a115780601f106119e657610100808354040283529160200191611a11565b820191906000526020600020905b8154815290600101906020018083116119f457829003601f168201915b50505050508152602001600282018054611a2a90612a57565b80601f0160208091040260200160405190810160405280929190818152602001828054611a5690612a57565b8015611aa35780601f10611a7857610100808354040283529160200191611aa3565b820191906000526020600020905b815481529060010190602001808311611a8657829003601f168201915b50505050508152602001600382018054611abc90612a57565b80601f0160208091040260200160405190810160405280929190818152602001828054611ae890612a57565b8015611b355780601f10611b0a57610100808354040283529160200191611b35565b820191906000526020600020905b815481529060010190602001808311611b1857829003601f168201915b50505050508152602001600482018054611b4e90612a57565b80601f0160208091040260200160405190810160405280929190818152602001828054611b7a90612a57565b8015611bc75780601f10611b9c57610100808354040283529160200191611bc7565b820191906000526020600020905b815481529060010190602001808311611baa57829003601f168201915b505050505081526020016005820160009054906101000a900473ffffffffffffffffffffffffffffffffffffffff1673ffffffffffffffffffffffffffffffffffffffff1673ffffffffffffffffffffffffffffffffffffffff1681526020016005820160149054906101000a900460ff161515151581525050838381518110611c5457611c53612b61565b5b6020026020010181905250508080611c6b90612aba565b9150506118e7565b508091505090565b60058181548110611c8b57600080fd5b906000526020600020016000915054906101000a900473ffffffffffffffffffffffffffffffffffffffff1681565b6000600254905090565b60038181548110611cd457600080fd5b906000526020600020016000915054906101000a900473ffffffffffffffffffffffffffffffffffffffff1681565b6000600660008373ffffffffffffffffffffffffffffffffffffffff1673ffffffffffffffffffffffffffffffffffffffff16815260200190815260200160002060050160149054906101000a900460ff169050919050565b604051806101000160405280600081526020016060815260200160608152602001600081526020016060815260200160608152602001600073ffffffffffffffffffffffffffffffffffffffff1681526020016000151581525090565b828054611dc590612a57565b90600052602060002090601f016020900481019282611de75760008555611e2e565b82601f10611e0057805160ff1916838001178555611e2e565b82800160010185558215611e2e579182015b82811115611e2d578251825591602001919060010190611e12565b5b509050611e3b9190611e94565b5090565b6040518060e001604052806000815260200160608152602001606081526020016060815260200160608152602001600073ffffffffffffffffffffffffffffffffffffffff1681526020016000151581525090565b5b80821115611ead576000816000905550600101611e95565b5090565b6000611ec4611ebf846128fd565b6128d8565b905082815260208101848484011115611ee057611edf612bc4565b5b611eeb848285612a15565b509392505050565b600081359050611f0281612c33565b92915050565b600082601f830112611f1d57611f1c612bbf565b5b8135611f2d848260208601611eb1565b91505092915050565b600081359050611f4581612c4a565b92915050565b600060208284031215611f6157611f60612bce565b5b6000611f6f84828501611ef3565b91505092915050565b60008060408385031215611f8f57611f8e612bce565b5b6000611f9d85828601611ef3565b9250506020611fae85828601611ef3565b9150509250929050565b600080600080600060a08688031215611fd457611fd3612bce565b5b600086013567ffffffffffffffff811115611ff257611ff1612bc9565b5b611ffe88828901611f08565b955050602086013567ffffffffffffffff81111561201f5761201e612bc9565b5b61202b88828901611f08565b945050604086013567ffffffffffffffff81111561204c5761204b612bc9565b5b61205888828901611f08565b935050606086013567ffffffffffffffff81111561207957612078612bc9565b5b61208588828901611f08565b925050608061209688828901611ef3565b9150509295509295909350565b60008060008060008060c087890312156120c0576120bf612bce565b5b600087013567ffffffffffffffff8111156120de576120dd612bc9565b5b6120ea89828a01611f08565b965050602087013567ffffffffffffffff81111561210b5761210a612bc9565b5b61211789828a01611f08565b955050604061212889828a01611f36565b945050606087013567ffffffffffffffff81111561214957612148612bc9565b5b61215589828a01611f08565b935050608087013567ffffffffffffffff81111561217657612175612bc9565b5b61218289828a01611f08565b92505060a061219389828a01611ef3565b9150509295509295509295565b6000602082840312156121b6576121b5612bce565b5b60006121c484828501611f36565b91505092915050565b60006121d983836123b0565b905092915050565b60006121ed8383612512565b905092915050565b6121fe816129cd565b82525050565b61220d816129cd565b82525050565b600061221e8261294e565b6122288185612989565b93508360208202850161223a8561292e565b8060005b85811015612276578484038952815161225785826121cd565b94506122628361296f565b925060208a0199505060018101905061223e565b50829750879550505050505092915050565b600061229382612959565b61229d818561299a565b9350836020820285016122af8561293e565b8060005b858110156122eb57848403895281516122cc85826121e1565b94506122d78361297c565b925060208a019950506001810190506122b3565b50829750879550505050505092915050565b612306816129df565b82525050565b612315816129df565b82525050565b600061232682612964565b61233081856129ab565b9350612340818560208601612a24565b61234981612bd3565b840191505092915050565b600061235f82612964565b61236981856129bc565b9350612379818560208601612a24565b61238281612bd3565b840191505092915050565b600061239a6026836129bc565b91506123a582612be4565b604082019050919050565b600060e0830160008301516123c8600086018261269c565b50602083015184820360208601526123e0828261231b565b915050604083015184820360408601526123fa828261231b565b91505060608301518482036060860152612414828261231b565b9150506080830151848203608086015261242e828261231b565b91505060a083015161244360a08601826121f5565b5060c083015161245660c08601826122fd565b508091505092915050565b600060e083016000830151612479600086018261269c565b5060208301518482036020860152612491828261231b565b915050604083015184820360408601526124ab828261231b565b915050606083015184820360608601526124c5828261231b565b915050608083015184820360808601526124df828261231b565b91505060a08301516124f460a08601826121f5565b5060c083015161250760c08601826122fd565b508091505092915050565b60006101008301600083015161252b600086018261269c565b5060208301518482036020860152612543828261231b565b9150506040830151848203604086015261255d828261231b565b9150506060830151612572606086018261269c565b506080830151848203608086015261258a828261231b565b91505060a083015184820360a08601526125a4828261231b565b91505060c08301516125b960c08601826121f5565b5060e08301516125cc60e08601826122fd565b508091505092915050565b6000610100830160008301516125f0600086018261269c565b5060208301518482036020860152612608828261231b565b91505060408301518482036040860152612622828261231b565b9150506060830151612637606086018261269c565b506080830151848203608086015261264f828261231b565b91505060a083015184820360a0860152612669828261231b565b91505060c083015161267e60c08601826121f5565b5060e083015161269160e08601826122fd565b508091505092915050565b6126a581612a0b565b82525050565b6126b481612a0b565b82525050565b60006020820190506126cf6000830184612204565b92915050565b600060208201905081810360008301526126ef8184612213565b905092915050565b600060208201905081810360008301526127118184612288565b905092915050565b600060208201905061272e600083018461230c565b92915050565b6000602082019050818103600083015261274d8161238d565b9050919050565b6000602082019050818103600083015261276e8184612461565b905092915050565b6000602082019050818103600083015261279081846125d7565b905092915050565b60006020820190506127ad60008301846126ab565b92915050565b600060e0820190506127c8600083018a6126ab565b81810360208301526127da8189612354565b905081810360408301526127ee8188612354565b905081810360608301526128028187612354565b905081810360808301526128168186612354565b905061282560a0830185612204565b61283260c083018461230c565b98975050505050505050565b600061010082019050612854600083018b6126ab565b8181036020830152612866818a612354565b9050818103604083015261287a8189612354565b905061288960608301886126ab565b818103608083015261289b8187612354565b905081810360a08301526128af8186612354565b90506128be60c0830185612204565b6128cb60e083018461230c565b9998505050505050505050565b60006128e26128f3565b90506128ee8282612a89565b919050565b6000604051905090565b600067ffffffffffffffff82111561291857612917612b90565b5b61292182612bd3565b9050602081019050919050565b6000819050602082019050919050565b6000819050602082019050919050565b600081519050919050565b600081519050919050565b600081519050919050565b6000602082019050919050565b6000602082019050919050565b600082825260208201905092915050565b600082825260208201905092915050565b600082825260208201905092915050565b600082825260208201905092915050565b60006129d8826129eb565b9050919050565b60008115159050919050565b600073ffffffffffffffffffffffffffffffffffffffff82169050919050565b6000819050919050565b82818337600083830152505050565b60005b83811015612a42578082015181840152602081019050612a27565b83811115612a51576000848401525b50505050565b60006002820490506001821680612a6f57607f821691505b60208210811415612a8357612a82612b32565b5b50919050565b612a9282612bd3565b810181811067ffffffffffffffff82111715612ab157612ab0612b90565b5b80604052505050565b6000612ac582612a0b565b91507fffffffffffffffffffffffffffffffffffffffffffffffffffffffffffffffff821415612af857612af7612b03565b5b600182019050919050565b7f4e487b7100000000000000000000000000000000000000000000000000000000600052601160045260246000fd5b7f4e487b7100000000000000000000000000000000000000000000000000000000600052602260045260246000fd5b7f4e487b7100000000000000000000000000000000000000000000000000000000600052603260045260246000fd5b7f4e487b7100000000000000000000000000000000000000000000000000000000600052604160045260246000fd5b600080fd5b600080fd5b600080fd5b600080fd5b6000601f19601f8301169050919050565b7f4f6e6c79206f776e65722063616e20706572666f726d2074686973206f70657260008201527f6174696f6e2e0000000000000000000000000000000000000000000000000000602082015250565b612c3c816129cd565b8114612c4757600080fd5b50565b612c5381612a0b565b8114612c5e57600080fd5b5056fea2646970667358221220219a4fd6af111cbf74e9546ab8d6f48659d1a18e694d0059983169832446ae5a64736f6c63430008070033",
  "immutableReferences": {},
  "source": "// SPDX-License-Identifier: MIT\r\npragma solidity ^0.8.7;\r\n\r\ncontract RecruitersVerifiersContract {\r\n    address owner;\r\n    uint authorizedVerifiersCount;\r\n    uint authorizedRecruitersCount;\r\n\r\n    /**\r\n     * @dev Set contract deployer as owner\r\n     */\r\n    constructor() {\r\n        owner = msg.sender;\r\n        authorizedVerifiersCount = 0;\r\n        authorizedRecruitersCount = 0;\r\n    }\r\n\r\n    // Only owner can access\r\n    modifier onlyOwner() {\r\n        require(msg.sender == owner, \"Only owner can perform this operation.\");\r\n        _;\r\n    }\r\n\r\n    //An employeer or a university\r\n    struct Verifier{\r\n        uint id;\r\n        string cif;\r\n        string name;\r\n        uint verifierType; //1- university, 2-employeer\r\n        string postalAddress;\r\n        string emailAddress;\r\n        address verifierAddress;\r\n        bool isAuthorized;\r\n    }\r\n    //Address list of authorized verifiers\r\n    address[] public authorizedVerifiers;\r\n    mapping(address => Verifier) public verifierDetails;\r\n\r\n    //A recruiter\r\n    struct Recruiter{\r\n        uint id;\r\n        string cif;\r\n        string name;\r\n        string postalAddress;\r\n        string emailAddress;\r\n        address recruiterAddress;\r\n        bool isAuthorized;\r\n    }\r\n    //Address list of authorized recruiters\r\n    address[] public authorizedRecruiters;\r\n    mapping(address => Recruiter) public recruiterDetails;\r\n\r\n    mapping(address => mapping (address => uint)) public candidateRecruiterTmpAuth;\r\n\r\n    // Function to add authorized verifiers, only owner can add them\r\n    function addAuthorizedVerifiers(string memory _cif, string memory _name, uint _verifierType, string memory _postalAddress, \r\n    string memory _emailAddress, address _verifierAddress) public onlyOwner{\r\n        Verifier memory verifier = Verifier({\r\n            id: authorizedVerifiersCount,\r\n            cif: _cif,\r\n            name: _name,\r\n            verifierType: _verifierType,\r\n            postalAddress: _postalAddress,\r\n            emailAddress: _emailAddress,\r\n            verifierAddress: _verifierAddress,\r\n            isAuthorized: true\r\n        });\r\n        verifierDetails[_verifierAddress] = verifier;\r\n        authorizedVerifiers.push(_verifierAddress);\r\n        authorizedVerifiersCount++;\r\n    }\r\n\r\n    // Function to add authorized recruiters, only owner can add them\r\n    function addAuthorizedRecruiters(string memory _cif, string memory _name, string memory _postalAddress, \r\n    string memory _emailAddress, address _recruiterAddress) public onlyOwner{\r\n        Recruiter memory recruiter = Recruiter({\r\n            id: authorizedRecruitersCount,\r\n            cif: _cif,\r\n            name: _name,\r\n            postalAddress: _postalAddress,\r\n            emailAddress: _emailAddress,\r\n            recruiterAddress: _recruiterAddress,\r\n            isAuthorized: true\r\n        });\r\n        recruiterDetails[_recruiterAddress] = recruiter;\r\n        authorizedRecruiters.push(_recruiterAddress);\r\n        authorizedRecruitersCount++;\r\n    }\r\n\r\n    //Function to search verifier details, public\r\n    function getVerifier(address _verifierAddress) public view returns (Verifier memory) {\r\n        Verifier memory verifier = verifierDetails[_verifierAddress];\r\n        return verifier;\r\n    }\r\n\r\n    //Function to search recruiter details, public\r\n    function getRecruiter(address _recruiterAddress) public view returns (Recruiter memory) {\r\n        Recruiter memory recruiter = recruiterDetails[_recruiterAddress];\r\n        return recruiter;\r\n    }\r\n\r\n    //Function to get a list of all authorized verifiers\r\n    function getAllAuthorizedverifiers() public view  returns (Verifier[] memory){\r\n        Verifier[] memory verifiers = new Verifier[](authorizedVerifiersCount);\r\n        for (uint i = 0; i < authorizedVerifiersCount; i++) {\r\n            Verifier storage verifier = verifierDetails[authorizedVerifiers[i]];\r\n            verifiers[i] = verifier;\r\n        }\r\n         return verifiers;\r\n    }\r\n\r\n    //Function to get a list of all authorized recruiters\r\n    function getAllAuthorizedRecruiters() public view returns (Recruiter[] memory){\r\n        Recruiter[] memory recruiters = new Recruiter[](authorizedVerifiersCount);\r\n        for (uint i = 0; i < authorizedRecruitersCount; i++) {\r\n            Recruiter storage recruiter = recruiterDetails[authorizedRecruiters[i]];\r\n            recruiters[i] = recruiter;\r\n        }\r\n         return recruiters;\r\n    }\r\n\r\n    // get total number of verifiers authorized, public\r\n    function getAuthorizedVerifierCount() external view returns (uint) {\r\n        return authorizedVerifiersCount;\r\n    }\r\n\r\n    // get total number of recruiters authorized, public\r\n    function getAuthorizedRecruiterCount() external view returns (uint) {\r\n        return authorizedRecruitersCount;\r\n    }\r\n\r\n    function isAuthorizedRecruiter(address _recruiterAddress) external view returns (bool){\r\n        return recruiterDetails[_recruiterAddress].isAuthorized;\r\n    }\r\n\r\n    function isAuthorizedVerifier(address _verifierAddress) external view returns (bool){\r\n        return verifierDetails[_verifierAddress].isAuthorized;\r\n    }\r\n\r\n}",
  "sourcePath": "C:\\Users\\Irasema Rivera\\OneDrive\\USAL\\TFM\\CVChain\\contracts\\RecruitersVerifiersContract.sol",
  "compiler": {
    "name": "solc",
    "version": "0.8.7+commit.e28d00a7.Emscripten.clang"
  },
  "schemaVersion": "3.4.7",
  "updatedAt": "2022-07-06T18:31:13.874Z",
  "networkType": "ethereum",
  "devdoc": {
    "kind": "dev",
    "methods": {
      "constructor": {
        "details": "Set contract deployer as owner"
      }
    },
    "version": 1
  },
  "userdoc": {
    "kind": "user",
    "methods": {},
    "version": 1
  }
}